:100000000C943C0B0C94830B0C94830B0C94830B7F
:100010000C94830B0C94830B0C94830B0C94830B28
:100020000C94830B0C94830B0C945F260C94322756
:100030000C946D1D0C94830B0C94830B0C94830B0C
:100040000C94830B0C94830B0C94830B0C94830BF8
:100050000C94830B0C94CE1D0C94830B0C94830B8B
:100060000C94830B0C94830B0C94830B0C94830BD8
:100070000C94830B0C94830B0C94830B0C94830BC8
:100080000C94830B0C94830B0C94830B0C94830BB8
:100090000C94830B0C94830B0C94830B0C94830BA8
:1000A0000C94830B0C94830B0C94830B00003A008C
:1000B0003B003C003D003E003F000000000000000F
:1000C00000000000000000000000000040004100AF
:1000D00042004300440045000000000035001E00BF
:1000E0001F0020002100220023000000000000006B
:1000F000000000000000000024002500260027006A
:100100002D002E022A0000002B002B0014001A00E4
:100110000800150017000000000000000000520059
:100120000000000000001C0018000C00120013006A
:100130002F0230022A00E000E00004001600070051
:1001400009000A00000000000000500000004F00FD
:10015000000000000B000D000E000F003300340003
:10016000310000000000E100E1001D001B0006005E
:100170001900050000000000000051000000000010
:10018000050011001000360037003800280000007C
:10019000000000000000000000002C002C002C00DB
:1001A0002C000000000000000000000000002C00F7
:1001B0002C002C002C0000000000000000000000BB
:1001C000000000000000000000000000000000002F
:1001D0002900E200E3000151E700E60029000000E9
:1001E000000000000000000000000000000000000F
:1001F00001000100010001000100010000000000F9
:1002000000000000000000000000000000000100ED
:1002100001000100010001000100000000000100D8
:1002200001000100010001000100010000000000C8
:1002300000000000000000000000010001000100BB
:100240000100010001004C0000000100010001005C
:10025000010001000100010000000000000000009A
:10026000A9000000000000000100010001000100E1
:100270000100010001004C0001000100010001002B
:10028000010001000100000000000000AC000000BF
:10029000AB00000000005000510052004F00010070
:1002A0000100010000000000010001000100010048
:1002B000010001000100000000000000AA00000091
:1002C0000000010001000100010001000100010027
:1002D000000000000000000000000000010001001C
:1002E000010001000000000000000000000000000C
:1002F00001000100010001000000000000000000FA
:1003000000000000000000000000000000000000ED
:10031000000000700100AE000100AE00010000709E
:1003200000000000000000000000000000000000CD
:1003300000000100010001000100010001000000B7
:1003400000000000000000000000000000000000AD
:100350000100010001000100010001000000000097
:100360000100010001000100010001000100000086
:10037000000000000000000000000000010001007B
:100380000100010001000100010000000100010066
:100390000100010001000100010000000000000058
:1003A0000000010000000000000001000100010049
:1003B0000100010001000100010001000100010035
:1003C0000100010001000100000000000000010028
:1003D0000000010000000000010001000100010018
:1003E0000100010001000000000001000100010007
:1003F00001000100010001000000000000000100F8
:1004000000000000010001000100010001000100E6
:1004100001000000000000000000000000000100DA
:1004200001000100010000000000000000000000C9
:1004300000000100010001000100000000000000B8
:1004400000000000000000000000000000000000AC
:100450000000000001000100010001000100010096
:10046000010000000000000000000000000000008B
:100470000000000001000100010001000100010076
:10048000000000000000000000000000000000006C
:100490000000010001000100010001000100000056
:1004A0000000010001000100010001000100010045
:1004B000000000000000000000000000000001003B
:1004C0000100010001000100010001000000010025
:1004D0000100010001000100010001000000000016
:1004E0000000000001000000000000000100010009
:1004F00001000100010001000100010001000100F4
:1005000001000100010001000100000000000000E6
:1005100001000000010000000000010001000100D6
:1005200001000100010001000000000001000100C5
:1005300001000100010001000100000000000000B6
:1005400001000000000001000100010001000100A5
:100550000100010000000000000000000000000099
:100560000100010001000100000000000000000087
:100570000000000001000100010001000000000077
:10058000000000000000000000000000000000006B
:100590000000000000000100010001000100010056
:1005A0000100010000000000000000000000000049
:1005B0000000000000000100010001000100010036
:1005C000010000000000000000000000000000002A
:1005D0000000000001000100010001000100010015
:1005E0000000000001000100010001000100010005
:1005F00001000000000000000000000000000000FA
:1006000001000100010001000100010001000000E3
:1006100001000100010001000100010001000000D3
:1006200000000000000001000000000000000100C8
:1006300001000100010001000100010001000100B2
:1006400001000100010001000100010000000000A4
:100650000000010000000100000000000100010096
:100660000100010001000100010000000000010084
:100670000100010001000100010001000000000074
:100680000000010000000000010001000100010065
:100690000100010001000000000000000000000057
:1006A0000000010001000100010000000000000046
:1006B0000000000000000100010001000100000036
:1006C000000000000000000000000000000000002A
:1006D0000000000000000000010001000100010016
:1006E0000100010001000000000000000000000007
:1006F00000000000000000000100010001000100F6
:1007000001000100000000000000000000000000E7
:1007100000000000000001000100010001000100D4
:1007200001000000000001000100010001000100C3
:1007300001000100000000000000000000000000B7
:1007400000000100010001000100010001000100A2
:100750000000010001000100010001000100010092
:100760000000000000000000010000000000000088
:100770000100010001000100010001000100010071
:100780000100010001000100010001000100000062
:100790000000000001000000010000000000010056
:1007A0000100010001000100010001000000000043
:1007B0000100010001000100010001000100000032
:1007C0000000000001000000000001000100010025
:1007D0000100010001000100000000000000000015
:1007E0000000000001000100010001000000000005
:1007F00000000000000000000100010001000100F5
:1008000000000000000000000000000000000000E8
:1008100000000000000000000000010001000100D5
:1008200001000100010001000000000000000000C4
:1008300000000000000000000000010001000100B5
:1008400001000100010000000000000000000000A5
:100850000000000000000000010001000100010094
:100860000100010000000000010001000100010082
:100870000100010001000000000000000000000075
:100880000000000001000100010001000100010062
:100890000100000001000100010001000100010051
:1008A0000100000000000000000001000000000046
:1008B0000000010001000100010001000100010031
:1008C0000100010001000100010001000100010020
:1008D0000000000000000100000001000000000016
:1008E0000100010001000100010001000100000001
:1008F00000000100010001000100010001000100F1
:1009000000000000000001000000000001000100E4
:1009100001000100010001000100000000000000D2
:1009200000000000000001000100010001000000C3
:1009300000000000000000000000010001000100B4
:1009400001000000000000000000000000000000A6
:100950000000000000000000000000000100010095
:100960000100010001000100010000000000000082
:100970000000000000000000000000000100010075
:100980000100010001000100000000000000000063
:100990000000000000000000000001000100010054
:1009A0000100010001000000000001000100010041
:1009B0000100010001000100000000000000000033
:1009C0000000000000000100010001000100010022
:1009D0000100010000000100010001000100010010
:1009E0000100010000000000000000000100000004
:1009F00000000000010001000100010001000100F1
:100A000001000100010001000100010001000100DE
:100A100001000000000000000100000001000000D3
:100A200000000100010001000100010001000100BF
:100A300000000000010001000100010001000100B0
:100A400001000000000000000100000000000100A3
:100A50000100010001000100010001000000000090
:100A60000000000000000000010001000100010082
:100A70000000000000000000000000000100010074
:100A80000100010000000000000000000000000064
:100A90000000000000000000000000000000010055
:100AA0000100010001000100010001000000000040
:100AB0000000000000000000000000000000010035
:100AC0000100010001000100010000000000000021
:100AD0000000000000000000000000000100010014
:100AE0000100010001000100000000000100010000
:100AF00001000100010001000100000000000000F1
:100B000000000000000000000100010001000100E1
:100B100001000100010000000100010001000100CE
:100B200001000100010000000000000000000100C1
:100B300000000000000001000100010001000100B0
:100B4000010001000100010001000100010001009D
:100B50000100010000000000000001000000010091
:100B6000000000000100010001000100010001007F
:100B7000010000000000010001000100010001006F
:100B80000100010000000000000001000000000062
:100B9000010001000100010001000100010000004E
:100BA0000000000000000000000001000100010042
:100BB0000100000000000000000000000000010033
:100BC0000100010001000000000000000000000022
:100BD0000000000000000000000000000000000015
:100BE00001000100010001000100010001000000FE
:100BF00000000000000000000000000000000000F5
:100C000001000100010001000100010000000000DE
:100C100000000000000000000000000000000100D3
:100C200001000100010001000100000000000100BE
:100C300001000100010001000100010000000000AE
:100C400000000000000000000000010001000100A1
:100C5000010001000100010000000100010001008D
:100C60000100010001000100000000000000000080
:100C7000010000000000000001000100010001006F
:100C8000010001000100010001000100010001005C
:100C90000100010001000000000000000100000050
:100CA000010000000000010001000100010001003E
:100CB000010001000000000001000100010001002E
:100CC0000100010001000000000000000100000020
:100CD000000001000100010001000100010001000D
:100CE0000000000000000000000000000100010002
:100CF00001000100000000000000000000000000F2
:100D000001000100010001000000000000000000DF
:100D100000000000000000000000000000000000D3
:100D200000000100010001000100010001000100BC
:100D300000000000000000000000000000000000B3
:100D4000000001000100010001000100010000009D
:100D50000000000000000000000000000000000093
:100D6000010001000100010001000100000000007D
:100D7000010001000100010001000100010000006C
:100D80000000000000000000000000000100010061
:100D9000010001000100010001000000010001004C
:100DA000010001000100010001000000000000003E
:100DB000000001000000000000000100010001002F
:100DC000010001000100010001000100010001001B
:100DD000010001000100010000000000000001000E
:100DE00000000100000000000100010001000100FE
:100DF00001000100010000000000010001000100ED
:100E000001000100010001000000000000000100DD
:100E100000000000010001000100010001000100CC
:100E200001000000000000000000000000000100C0
:100E300001000100010000000000000000000000AF
:100E4000000001000100010001000000000000009E
:100E50000000000000000000000000000000000092
:100E6000000000000100010001000100010001007C
:100E70000100000000000000000000000000000071
:100E8000000000000100010001000100010001005C
:100E90000000000000000000000000000000000052
:100EA000000001000100010001000100010000003C
:100EB000000001000100010001000100010001002B
:100EC0000000000000000000000000000000010021
:100ED000010001000100010001000100000001000B
:100EE00001000100010001000100010000000000FC
:100EF00000000000010000000000000001000100EF
:100F000001000100010001000100010001000100D9
:100F100001000100010001000100000000000000CC
:100F200001000000010000000000010001000100BC
:100F300001000100010001000000000001000100AB
:100F4000010001000100010001000000000000009C
:100F5000010000000000010001000100010001008B
:100F6000010001000000000000000000000000007F
:100F7000010001000100010000000000000000006D
:100F8000000000000100010001000100000000005D
:100F90000000000000000000000000000000000051
:100FA000000000000000010001000100010001003C
:100FB000010001000000000000000000000000002F
:100FC000000000000000010001000100010001001C
:100FD0000100000000000000000000000000000010
:100FE00000000000010001000100010001000100FB
:100FF00000000000010001000100010001000100EB
:1010000001000000000000000000000000000000DF
:1010100001000100010001000100010001000000C9
:1010200001000100010001000100010001000000B9
:1010300000000000000001000000000000000100AE
:101040000100010001000100010001000100010098
:10105000010001000100010001000100000000008A
:10106000000001000000010000000000010001007C
:10107000010001000100010001000000000001006A
:10108000010001000100010001000100000000005A
:10109000000001000000000001000100010001004B
:1010A000010001000100000000000000000000003D
:1010B000000001000100010001000000000000002C
:1010C000000000000000010001000100010000001C
:1010D0000000000000000000000000000000000010
:1010E00000000000000000000100010001000100FC
:1010F00001000100010000000000000000000000ED
:1011000000000000000000000100010001000100DB
:1011100001000100000000000000000000000000CD
:1011200000000000000001000100010001000100BA
:1011300001000000000001000100010001000100A9
:10114000010001000000000000000000000000009D
:101150000000010001000100010001000100010088
:101160000000010001000100010001000100010078
:10117000000000000000000001000000000000006E
:101180000100010001000100010001000100010057
:101190000100010001000100010001000100000048
:1011A000000000000100000001000000000001003C
:1011B0000100010001000100010001000000000029
:1011C0000100010001000100010001000100000018
:1011D000000000000100000000000100010001000B
:1011E00001000100010001000000000000000000FB
:1011F00000000000010001000100010000000000EB
:1012000000000000000000000100010001000100DA
:1012100000000000000000000000000000000000CE
:1012200000000000000000000000010001000100BB
:1012300001000100010001000000000000000000AA
:10124000000000000000000000000100010001009B
:10125000010001000100000000000000000000008B
:10126000000000000000000001000100010001007A
:101270000100010000000000010001000100010068
:10128000010001000100000000000000000000005B
:101290000000000001000100010001000100010048
:1012A0000100000001000100010001000100010037
:1012B000010000000000000000000100000000002C
:1012C0000000010001000100010001000100010017
:1012D0000100010001000100010001000100010006
:1012E00000000000000001000000010000000000FC
:1012F00001000100010001000100010001000000E7
:1013000000000100010001000100010001000100D6
:1013100000000000000001000000000001000100CA
:1013200001000100010001000100000000000000B8
:1013300000000000000001000100010001000000A9
:10134000000000000000000000000100010001009A
:10135000010000000000000000000000000000008C
:10136000000000000000000000000000010001007B
:101370000100010001000100010000000000000068
:10138000000000000000000000000000010001005B
:101390000100010001000100000000000000000049
:1013A000000000000000000000000100010001003A
:1013B0000100010001000000000001000100010027
:1013C0000100010001000100000000000000000019
:1013D0000000000000000100010001000100010008
:1013E00001000100000001000100010001000100F6
:1013F00001000100000000000000000001000000EA
:1014000000000000010001000100010001000100D6
:1014100001000100010001000100010001000100C4
:1014200001000000000000000100000001000000B9
:1014300000000100010001000100010001000100A5
:101440000000000001000100010001000100010096
:101450000100000000000000010000000000010089
:101460000100010001000100010001000000000076
:101470000000000000000000010001000100010068
:10148000000000000000000000000000010001005A
:10149000010001000000000000000000000000004A
:1014A000000000000000000000000000000001003B
:1014B0000100010001000100010001000000000026
:1014C00000000000000000000000000012036B009C
:1014D0006500790062006F00610072006400000026
:1014E000160371006D006B006200750069006C00EE
:1014F00064006500720000000403090409026D0025
:10150000040100A0FA0904000001030101000921FF
:10151000110100012240000705810308000A0904A7
:1015200001000103010200092111010001224D0007
:101530000705820308000A090402000103000000F5
:101540000921110100012236000705830308000A62
:101550000904030001030000000921110100012218
:10156000390007058403200001120110010000006A
:1015700008EDFE606001000102000105010906A1FD
:1015800001050719E029E715002501950875018176
:101590000205081901290595057501910295017546
:1015A0000391010507190029F71500250195F87524
:1015B000018102C005010980A101850216010026F2
:1015C00003001A81002A8300751095018100C0056F
:1015D0000C0901A1018503160100269C021A0100D5
:1015E0002A9C02751095018100C005010902A10124
:1015F0000901A10005091901290515002501950515
:1016000075018102950175038101050109300931D8
:101610001581257F95027508810609381581257F7A
:10162000950175088106050C0A38021581257F95FC
:101630000175088106C0C005010906A10105071949
:10164000E029E715002501950875018102950175CE
:101650000881010508190129059505750191029573
:1016600001750391010507190029FF150026FF00E8
:10167000950675088100C00011241FBECFEFDAE087
:10168000DEBFCDBF04B603FE27C08091C502909196
:10169000C602A091C702B091C8028730904BA74004
:1016A000B04BD1F41092C5021092C6021092C7023C
:1016B0001092C80214BE84B7877F84BF0FB6F89417
:1016C000A89580916000886180936000109260000E
:1016D0000FBEE0E0F8E3099511E0A0E0B1E0EEE331
:1016E000F5E502C005900D92A634B107D9F722E0C6
:1016F000A6E4B1E001C01D92A53CB207E1F70E944B
:10170000B5230C94712A0C94000090E080E00895B9
:101710000895089581E00895089581E008950C9456
:101720008A0B0E94AE152FEF84E39CE0215080408D
:101730009040E1F700C000000C94F11DEF92FF9281
:101740000F931F93CF93DF938C01FC01E080F18016
:101750008091B601811140C082818823C1F1C70107
:101760000E94331BC82F682FC7010E94DC1AB701E3
:101770008C2F0E94D60CEC01B8010E948F0B88239D
:1017800009F44BC0B801CE010E94DF0E882309F492
:1017900044C0C531F0E7DF0720F5C23080E7D80745
:1017A00008F04DC0C115E0E7DE0791F1C130D04728
:1017B000E1F181E08093480180934901C801DF9104
:1017C000CF911F910F91FF90EF900C948D0BC7015B
:1017D0000E940A1BC82FCBCFC7010E94331BB70141
:1017E000C8CFCC3380E7D80709F49BC0CD33D047AE
:1017F00001F7F8018281882309F4BAC010924901E7
:101800000E949D1D909347018093460180E296C0FF
:10181000F801828181110E94910B80E0DF91CF91CC
:101820001F910F91FF90EF900895F8018281882316
:10183000A1F380918502816080938502EECFF8014B
:101840008281882309F4BACF0E94EE1C811102C064
:101850000E94D41C0E940B1D90E09093B7028093CD
:10186000B602FE01E350F0478091B6028160E2319A
:10187000F10538F4ED58F54D0C94212A8091B6020B
:1018800082608093B6028091B6020E940F1D0E9472
:10189000AE15C3CF8091B6028460F3CF8091B602BB
:1018A0008860EFCF8091B6028061EBCF8091B60265
:1018B0008062E7CF8091B6028064E3CF8091B60268
:1018C0008068DFCF8091B6028C60DBCF8091B6025A
:1018D0008E7FD7CF8091B6028D7FD3CF8091B60215
:1018E0008B7FCFCF8091B602877FCBCF8091B6021E
:1018F0008F7EC7CF8091B6028F7DC3CF8091B60215
:101900008F7BBFCF8091B6028F77BBCF8091B6021D
:10191000837FB7CF9091B602892F97FB87F98058C4
:10192000B0CFF8018281882361F0109248010E94B3
:101930009D1D909347018093460182E00E941313FE
:101940006CCF8091480181110FC080914601909128
:1019500047010E94A91D883C910530F486E20E944F
:10196000E81186E20E94C41282E00E941A1355CF49
:101970008091490181110FC08091460190914701EA
:101980000E94A91D883C910530F487E20E94E8116D
:1019900087E20E94C41280E2E8CF0C942E0F0C94D0
:1019A000300F0C948C0B0C94D10C0895972F70E091
:1019B00027E1929F600D711D1124FB0191EA899F1F
:1019C000E00DF11D1124EE0FFF1FE455FF4F85912F
:1019D00094910895FC01EE0FFF1FE453FB4E859197
:1019E000949108950E94D60C0E94630E9C0181156B
:1019F00040E4940708F097C0211580E3380708F009
:101A0000FAC0203E310508F074C0203C310508F0D2
:101A1000E5C0283A310588F4253A310508F0E2C0DE
:101A20002130310509F477C0C9010497813A910545
:101A300008F471C030E020E06EC0C901885A9109F5
:101A40004597C0F7283A310509F4FEC0293A310517
:101A500009F4FDC02A3A310509F4FCC02B3A3105DE
:101A600009F4FBC02C3A310509F4FAC02B3B3105CF
:101A700009F4F9C02C3B310509F4F8C02D3A3105C1
:101A800009F4F7C0203B310509F4F6C02E3A3105C0
:101A900009F4F5C02F3A310509F4F4C0213B3105B2
:101AA00009F4F3C0223B310509F4F2C0233B3105B0
:101AB00009F4F1C0243B310509F4F0C0253B3105A0
:101AC00009F4EFC0263B310509F4EEC0273B310590
:101AD00009F4EDC0283B310509F4ECC0293B310580
:101AE00009F4EBC02A3B310509F4EAC020E034E4F4
:101AF00012C0211590E2390780F42F3F310509F01B
:101B000050F4283E310538F0C901805F91093065F5
:101B1000409708F08FCFC9010895C9019F700E94B6
:101B2000EA0C9C01F8CF8115944508F041C02115BD
:101B300083E5380708F06AC0211592E5390738F5C2
:101B4000211541E5340708F05CC0211580E5380710
:101B500008F454C0C90134E0969587953A95E1F7A9
:101B60008370422F46954695437090E2499FA001AD
:101B70001124582B822F837021E030E002C0220F05
:101B8000331F8A95E2F7242B352B3C68C4CFC9015B
:101B90008370992741E050E002C0440F551F8A9599
:101BA000E2F72695269580E2289F90011124EBCF3D
:101BB000211596E5390748F4922F882721153545D8
:101BC000C8F59C01246F306AA6CFC90190563F70BA
:101BD0008115904108F02ECF30629DCFC901805C05
:101BE00091099DCF253A310549F1263A310549F54C
:101BF00022E830E490CF3327306C8DCF3F70306ACD
:101C00008ACF322F2227216F306A85CFC901837096
:101C1000992741E050E002C0440F551F8A95E2F732
:101C20002695269580E2289F90011124242B352BA0
:101C30003A6871CF88279F719C01CECF21E830E4AC
:101C40006ACF23E830E467CF22EE34E464CF29EE94
:101C500034E461CF2AEE34E45ECF25EB34E45BCF8D
:101C600026EB34E458CF23EB34E455CF24EB34E4B3
:101C700052CF27EB34E44FCF2CEC34E44CCF2DEC97
:101C800034E449CF23E835E446CF2AE835E443CFAE
:101C900022E935E440CF24E935E43DCF21E236E4C2
:101CA0003ACF23E236E437CF24E236E434CF25E2DC
:101CB00036E431CF26E236E42ECF27E236E42BCFCE
:101CC0002AE236E428CF803E910581F1C8F48133C1
:101CD000910509F462C048F48932910509F456C0AF
:101CE0008A32910509F460C0089589339105B9F0ED
:101CF00082389105A1F08533910509F440C008951B
:101D0000863E910561F138F4823E9105B1F0833E43
:101D10009105E1F00895873E910551F108952091D4
:101D2000B6022370D9F080EE90E008952091B602BB
:101D300020FF14C089E390E008952091B60222FFAD
:101D40000DC024FD09C083EE90E008952091B602F5
:101D500022FD31C024FF02C090E080E00895209170
:101D6000B60223FFFBCF24FDF7CF87EE90E0089566
:101D70002091B60223FFEECF86EE90E008952091E9
:101D8000B60225FFEBCF89E290E008952091B602DC
:101D900025FFE4CF85E390E008952091B60226FF69
:101DA000DDCF8AE290E008952091B60226FFD6CFDB
:101DB00081E390E0089582EE90E0089508950F93F6
:101DC0001F93CF938C01FB018281811106C0C1E07A
:101DD0008C2FCF911F910F910895C0915701C11180
:101DE00025C00531104799F70E94DE0E81E08093EF
:101DF00057010E949D1D90935601809355011092AA
:101E00004A0110924C0110924B0110924E01109217
:101E10004D011092500110924F01109252011092F8
:101E200051011092540110925301D2CF809155016B
:101E3000909156010E94A91D883C910540F6809121
:101E40004A01E82FF0E0EE0FFF1FE55BFE4F118324
:101E500000838F5F80934A01C0E0BACF0C94880B57
:101E60000C94890B85B7806885BF85B7806885BF6E
:101E7000AAE2B1E061E070E08D91E82FE295EF70A9
:101E8000F0E041A18F709B0101C0220F8A95EAF713
:101E9000922F9095942391A382A1822B82A381E01B
:101EA000A133B80749F7A3E1B1E061E070E08D919B
:101EB000E82FE295EF70F0E041A18F709B0101C027
:101EC000220F8A95EAF7922F9095942391A382A1ED
:101ED000822B82A381E0AA32B80749F7E4E7F1E058
:101EE000A8E5B1E080E991E011921192119211926E
:101EF0001D921D921D921D928E179F07A9F70C949B
:101F0000CD0C2F923F924F925F926F927F928F9261
:101F10009F92AF92BF92CF92DF92EF92FF920F9378
:101F20001F93CF93DF93CDB7DEB72B970FB6F894FF
:101F3000DEBF0FBECDBF88E5282E81E0382E0AE235
:101F400011E01E830D8338862F82C12CD12C76019F
:101F5000C394AF81B8858D909D90AD90BD90B887AA
:101F6000AF83FD011292129212921292FB87EA87BE
:101F7000AD81BE818D91BE83AD83E82FE295EF7078
:101F8000F0E091A18F7001E010E002C0000F111F7E
:101F90008A95E2F71A830983802F892B81A382A176
:101FA00000950987802382A310EA1A95F1F723E1AF
:101FB00031E03C832B8390E080E0AB81BC817D905D
:101FC000BC83AB83272D22952F7030E0D9019096EA
:101FD0005C90AA85BB854D915D916D917C91272D7B
:101FE0002F7001E010E002C0000F111F2A95E2F7E8
:101FF0009801252109F07AC097018601082E04C0B6
:10200000000F111F221F331F0A94D2F72801390134
:102010004429552966297729AA85BB854D935D9367
:102020006D937C93139701968731910531F681A1C9
:102030001985182311A382A1B9818B2B82A3EA856C
:10204000FB8580819181A281B38188169906AA06B9
:10205000BB0649F0F1E0F09390010E949D1D909322
:102060009201809391010F8118850457114009F066
:1020700070CF809190018823E9F080919101909137
:1020800092010E94A91D0697A8F024E731E0F10112
:1020900081919191A191B1911F01F9018193919346
:1020A000A193B1939F01F4E72F16F1E03F0679F772
:1020B000109290010E94CF0C81E02B960FB6F894FD
:1020C000DEBF0FBECDBFDF91CF911F910F91FF906B
:1020D000EF90DF90CF90BF90AF909F908F907F90C8
:1020E0006F905F904F903F902F900895412C512C0E
:1020F00032018ECFCF93DF9300D000D0CDB7DEB7C3
:1021000094E0899FF0011124EC58FE4F8081918169
:10211000A281B381BC01CD010F900F900F900F9061
:10212000DF91CF910895089590939801809397013E
:102130000895E0919701F0919801309721F0019076
:10214000F081E02D099480E00895E0919701F091ED
:102150009801309721F00280F381E02D09940895D1
:10216000E0919701F0919801309721F00480F5817A
:10217000E02D09940895209195013091960128173A
:10218000390771F09093960180939501E091970142
:10219000F0919801309721F00680F781E02D0994A5
:1021A000089520919301309194012817390771F017
:1021B0009093940180939301E0919701F09198019D
:1021C000309721F00084F185E02D09940895089559
:1021D0000C94E7100E94941D0E94320F0C945D1E17
:1021E0004F925F926F927F929F92AF92BF92CF92E7
:1021F000DF92EF92FF920F931F93CF93DF9300D064
:1022000000D00F92CDB7DEB70E94810F2AE9A22E2F
:1022100021E0B22E10E000E0902E802F0E947A1074
:102220006B017C01F50141905190619071905F01CB
:102230004C145D046E047F0409F475C0809185021E
:1022400081FD0E94931090E080E04C245D246E2478
:102250007F24B301A201082E04C076956795579597
:1022600047950A94D2F740FF59C089839A82412C3E
:10227000512C3201439404C0440C551C661C771C3D
:102280008A95D2F7C420D520E620F72081E0CD281A
:10229000CE28CF2809F480E08B830E949D1D8160A9
:1022A000782F9D838C8349815A816B818D810E9417
:1022B000BF11000F111F000F111FF801E656FE4F4E
:1022C00080819181A281B38184259525A625B7259A
:1022D00080839183A283B3830E940A210E94991074
:1022E000909199018917B1F10E94991080939901F9
:1022F0000F900F900F900F900F90DF91CF911F9143
:102300000F91FF90EF90DF90CF90BF90AF909F9094
:102310007F906F905F904F900C94D30C0196873113
:10232000910509F096CF0F5F1F4F0730110509F097
:1023300073CF8FEF89838A831B820E949D1D8160EA
:10234000782F9D838C8349815A816B818D810E9476
:10235000BF11C2CF0F900F900F900F900F90DF9191
:10236000CF911F910F91FF90EF90DF90CF90BF9092
:10237000AF909F907F906F905F904F900895CF9314
:10238000DF93CDB7DEB72B970FB6F894DEBF0FBE45
:10239000CDBF4F83588769877A878B871E8285E0F8
:1023A000FE013796DE01119601900D928A95E1F7B4
:1023B00049815A816B817C818D819E812B960FB6DC
:1023C000F894DEBF0FBECDBFDF91CF910C943618CD
:1023D000882309F4D8C0823871F40E94991081FDD5
:1023E000D2C089E30E94DB1B0E94A51C89E30E94E6
:1023F000181C0C94A51C833859F40E94991080FD78
:10240000C2C083E50E94DB1B0E94A51C83E5EFCFC1
:10241000843859F40E94991082FDB5C087E40E9467
:10242000DB1B0E94A51C87E4E2CF9CEF980F913A3A
:1024300018F40E94DB1BDDCF90E2980F983050F427
:10244000877091E001C0990F8A95EAF7892F0E9461
:102450005C1CCFCF9BE5980F933070F4853A31F038
:10246000863A39F083E890E00C94BB1081E890E064
:10247000FBCF82E890E0F8CF98E5980F953108F00F
:1024800082C0883A09F440C0893A09F440C08A3AC7
:1024900009F440C08B3A09F440C08C3A09F440C0BA
:1024A0008B3B09F440C08C3B09F440C08D3A09F4E1
:1024B00040C0803B09F440C08E3A09F440C08F3AD6
:1024C00009F440C0813B09F440C0823B09F440C09C
:1024D000833B09F440C0843B09F440C0853B09F4C8
:1024E00040C0863B09F440C0873B09F440C0883BAC
:1024F00009F440C0893B09F440C08A3B09F440C05C
:1025000090E080E00C94D11082EE90E0FBCF89EE59
:1025100090E0F8CF8AEE90E0F5CF85EB90E0F2CF37
:1025200086EB90E0EFCF83EB90E0ECCF84EB90E094
:10253000E9CF87EB90E0E6CF8CEC90E0E3CF8DEC39
:1025400090E0E0CF83E891E0DDCF8AE891E0DACF58
:1025500082E991E0D7CF84E991E0D4CF81E292E0A3
:10256000D1CF83E292E0CECF84E292E0CBCF85E27E
:1025700092E0C8CF86E292E0C5CF87E292E0C2CF78
:102580008AE292E0BFCF0895882309F44BC08238D5
:1025900071F40E94991081FF45C089E30E94DB1B02
:1025A0000E94A51C89E30E94181C0C94A51C83386A
:1025B00059F40E94991080FF35C083E50E94DB1B0F
:1025C0000E94A51C83E5EFCF843859F40E9499102E
:1025D00082FF28C087E40E94DB1B0E94A51C87E4C1
:1025E000E2CF9CEF980F913AF0F290E2980F98307A
:1025F00050F4877091E001C0990F8A95EAF7892F0E
:102600000E94621CD2CF9BE5980F933020F490E09B
:1026100080E00C94BB10885A853120F490E080E073
:102620000C94D1100895882321F00E945C1C0C9416
:10263000A51C0895882321F00E94621C0C94A51CFF
:1026400008958F929F92AF92BF92DF92EF92FF9286
:102650000F931F93CF93DF9300D000D00F92CDB78D
:10266000DEB77C016D837983FC01058102950F70D3
:10267000128111110E947B1C0E94D41BD82E88232A
:1026800071F01123A1F08D81805E883080F082E0AE
:102690000E94BE1B0E94D41B91E0D82ED926E9814E
:1026A000E295EF70F0E0EB57F54D0C94212AD12C18
:1026B000F6CF09810F70F981F07F11F00295007F4C
:1026C0001123B1F0002361F08D81805E883018F015
:1026D0002D81211109C0802F0E945C1C0E94A51C25
:1026E0008D810E94E81115C0802F0E946D1CF6CFCD
:1026F0008D810E94C412002361F08D81805E88303C
:1027000018F03D81311129C0802F0E94621C0E9467
:10271000A51CDD2009F4D3C10E94B11B80FDCFC1EF
:10272000F70112820E94AB1B0E94F419C7010E949C
:1027300070150E94AB1B0F900F900F900F900F9091
:10274000DF91CF911F910F91FF90EF90DF90BF909D
:10275000AF909F908F900C94161A802F0E94731C3C
:10276000D6CF49814F70B42E5981507F503219F025
:10277000B29480EFB8228D81882369F0813029F1ED
:10278000112369F1002359F0F701858180FFA8CF5B
:102790008F70858304C0112361F0011104C08B2D5B
:1027A0000E941313B6CF8B2D0130D1F70E948F1CDE
:1027B000B0CF011106C00E94921C8B2D0E941A13EB
:1027C000A8CF013009F4A5CFF6CF112321F00630B0
:1027D00008F09FCFE4CF053008F09BCFEECF002369
:1027E00061F38D810E94C41294CF8981869586956C
:1027F000837069F0813009F08CCF8D81998193705D
:10280000111102C090E080E00E94D11082CF8D8132
:1028100099819370111102C090E080E00E94BB107A
:1028200078CF8D81112329F00E9418200E94FF206B
:1028300070CF0E948020FACF8981837009F05FC039
:10284000111167CF2D81229526952770220F220F17
:102850008D818F7090E0B0E0A0E04C015D01022E10
:1028600004C0880C991CAA1CBB1C0A94D2F7FD81D9
:1028700060E070E0CB01F4FF0FC06FE070E080E03B
:1028800090E004C0660F771F881F991F2A95D2F722
:102890006095709580959095298126952695237051
:1028A0002D832230B1F0233019F19B01AC0128298E
:1028B00039294A295B2929833A834B835C833D81EB
:1028C00069817A818B819C813130B1F00E948119BC
:1028D00020CF9B01AC01282939294A295B2929836A
:1028E0003A834B835C83CA01B9010E94AB1911CFB3
:1028F0000E948119C501B4010E9457190ACF86951B
:10290000112311F089818170882309F402CF2D8170
:10291000229526952770220F220F8D818F7090E0CF
:10292000B0E0A0E04C015D01022E04C0880C991CAF
:10293000AA1CBB1C0A94D2F73D8160E070E0CB0179
:1029400034FF0FC06FE070E080E090E004C0660FDD
:10295000771F881F991F2A95D2F7609570958095EB
:10296000909549814695469543704D834230B1F02C
:10297000433019F19B01AC01282939294A295B29E7
:1029800029833A834B835C833D8169817A818B8182
:102990009C813130B1F00E94871ABBCE9B01AC0103
:1029A000282939294A295B2929833A834B835C8367
:1029B000CA01B9010E94B11AACCE0E94871AC501A2
:1029C000B4010E945D1AA5CE3D81323F09F447C093
:1029D00080F4303F79F1313FD9F1832F805E80312F
:1029E000D0F0112309F456C001117ACE89818F717C
:1029F00033C04D81433FD1F1443F99F7112309F48E
:102A00003FC089818F7189830E94F41963E08981B5
:102A10000E94B51B7ECE5D815F705D8389818F7161
:102A2000112321F00E94F4198D81BACE0E94161A4A
:102A30008D81C4CE112341F0053008F06ACE898122
:102A40008F710E943B1A65CE063008F062CEF7CF38
:102A500089818F71112339F00E94F4195ACE89812E
:102A60008F711123C9F30E94161A53CE112329F036
:102A700089818F710E94DF194CCE0E94D51949CEF1
:102A800081E00E94BE1B023008F443CE82E00E9427
:102A9000BE1B3FCE0111A5CE89818F71E4CF498144
:102AA0004F706D81C7010E94850B0E94D01831CEF6
:102AB00049814F706D81C7010E94D50C2ACE0F90BD
:102AC0000F900F900F900F90DF91CF911F910F916A
:102AD000FF90EF90DF90BF90AF909F908F90089500
:102AE0000F931F93CF93DF93EC018B819C81892BF4
:102AF00029F08881998189238F3F29F4DF91CF9133
:102B00001F910F910895CE010E949E0B8823B1F36F
:102B1000688179818A810E94811B8C010E94DB1A65
:102B20000E944C19B801CE01DF91CF911F910F91F6
:102B30000C9421130E947B1C0E948C1C0E944E1C32
:102B40000E94A51C0E94F0210E94FF2090E080E0DE
:102B50000E94BB1090E080E00C94D1100E946A1C8F
:102B60000C949A150E94751B282F892F82958F70BF
:102B7000903C80F48A30B0F4843020F4823090F4B9
:102B800080E008958630E1F781E0203E88F0213F23
:102B9000B9F70EC08C3011F08F3091F793FB882776
:102BA00080F9089581E0203F39F018F4203E40F785
:102BB0000895243F29F7FCCF0895CF93DF9300D0E9
:102BC00000D00F92CDB7DEB70F900F900F900F90FF
:102BD0000F90DF91CF910895CF93DF9300D000D075
:102BE00000D0CDB7DEB726960FB6F894DEBF0FBE85
:102BF000CDBFDF91CF9108951F93CF93DF93E091E5
:102C0000B70116E08091B8018E1304C0DF91CF9117
:102C10001F910895CE2FD0E01E9FF0011124E7549C
:102C2000FE4F4081518162817381848195810E9430
:102C3000EC15FE013196E770E5CF4091E901509126
:102C4000EA016091EB017091EC018091ED019091AE
:102C5000EE010C94EC151F93CF93DF938091EE015E
:102C6000807FC1F48091EB018823A1F08091B701AE
:102C7000C091B8016091E9017091EA014091EC01C5
:102C80005091ED01D62FD723DA01A095B09516E02B
:102C9000C81304C0DF91CF911F91089590E04115B2
:102CA000510511F0DF3F31F401968770F1CF2A0F03
:102CB0003B1F17C0189FF001199FF00D1124E75416
:102CC000FE4F21812713F0CF20812613EDCF2281E3
:102CD0002111EACF238134812417350740F3241BC7
:102CE000350B283C310500F72091EE012F70206153
:102CF0002093EE0126E0289FF001299FF00D11247A
:102D0000E254FE4F80818F708061808389EE91E074
:102D10000E947015DF91CF911F910C94FC159F922A
:102D2000AF92BF92CF92DF92EF92FF920F931F93D9
:102D3000CF93DF93CDB7DEB72B970FB6F894DEBFF6
:102D40000FBECDBF8C0185E0F801DE011796019022
:102D50000D928A95E1F7D8014C9111965C911197EB
:102D60001296EC9012978091EC019091ED010097F2
:102D700009F46BC12091E9013091EA01632F6223CC
:102D80006F3F09F462C11396CD90DC909090EB01F7
:102D9000992009F4F8C0C816D90608F43FC0F60116
:102DA000E81BF90BCF01FF24F394883C910508F050
:102DB000F12C89EEA82E81E0B82E8091EE01982F9B
:102DC000907FFF2009F4B7C0911180C0FE2C35130D
:102DD0002AC0241328C0E11026C08F708061809320
:102DE000EE010E941D16C5010E9470158091EE0132
:102DF000D80115968C938F2D2B960FB6F894DEBFC5
:102E00000FBECDBFDF91CF911F910F91FF90EF903B
:102E1000DF90CF90BF90AF909F9008958095909550
:102E20008C0D9D1DC0CFCD2829F0842F85238F3F89
:102E300009F019C180E0B82FB170DB2EE091B70125
:102E40002091B80136E080FD1CC0EE20A1F28091F7
:102E5000EE0181608093EE01F12CCDCF8E2F90E0BA
:102E60003E9FF0011124E754FE4F6181651306C0B7
:102E70006081641303C062816E11E7CFFC0131965B
:102E8000E770E213EBCF4F8358878F8198850E94BC
:102E9000751B292F22952F70903260F0225F2F70C2
:102EA000223078F49F7051F0F8019581907F31F4D1
:102EB000D12C0AC09F7011F08823D1F3805E883036
:102EC000B8F3C8010E947015FD2C95CF351306C0CC
:102ED000241304C0D801EE2009F47BC04F83588727
:102EE0008F8198850E94B215882309F4B8C0EE201E
:102EF00009F4B5C08091EE01803270F02091E901B3
:102F00003091EA013A8329831B82DD82CC828E8351
:102F1000CE0101960E94701586E0F801A9EEB1E09D
:102F200001900D928A95E1F70E942B160E941D16C2
:102F3000FF24F39460CF911113C07C2DDB86CA86E9
:102F40006E2D8B850E94DD1589EE91E00E94701533
:102F500086E0F50111928A95E9F70E941D164BCF84
:102F60003513BCCF2413BACFE110B8CFD8011596D2
:102F70008C93C8010E94701586E0F50111928A9524
:102F8000E9F7F92C38CFC816D90688F1B601681BC5
:102F9000790BCB01F12C883C910508F047C0FE2C41
:102FA000EE2009F45CC0351330C024132EC080918C
:102FB000EE0180FD21C0982F907FF1F0D801159689
:102FC0008C931597903F39F0982F907F905F8F707A
:102FD000892B15968C93C8010E94701586E0F80124
:102FE000A9EEB1E001900D928A95E1F7B6CF8095F8
:102FF00090958C0D9D1DCECF86E0F801A9EEB1E035
:1030000001900D928A95E1F7F6CE4F8358878F8114
:1030100098850E94B21581117FCF8091EE01816069
:103020008093EE01C8010E947015E5CE7C2DDB86F1
:10303000CA866E2D8B850E94DD1586E0E9EEF1E0F3
:10304000DF011D928A95E9F788CFEE2041F04F838A
:1030500058878F8198850E94B21581115DCFC80174
:103060000E94701565CF81E08E25E5CE1F93CF932A
:10307000DF93CDB7DEB72C970FB6F894DEBF0FBE47
:10308000CDBF4F83588769877A878B879C87CE010E
:1030900007960E948F16882369F08A859B85892B65
:1030A00039F04F815885842F85238F3F09F071C0F7
:1030B00016E05FC086E0FE013796DE0111960190B2
:1030C0000D928A95E1F78A859B85892B89F38885FE
:1030D0009F8189238F3F61F32091B80130E0C901BE
:1030E0000196877099274091B7014817190671F426
:1030F0000E94AE151092B8011092B70186E0E9EE79
:10310000F1E0DF011D928A95E9F7D2CF96E0929F18
:10311000D001939FB00D1124A754BE4FFE013196EC
:1031200001900D929A95E1F78093B8010E94FC15E9
:10313000BFCF819FC001112487549E4F0E948F16DC
:103140008823E9F0E091B7011E9FF0011124E754B4
:10315000FE4F4081518162817381848195810E94FB
:10316000EC158091B70190E00196877099278093C4
:10317000B7018091B7019091B8018913DACF2C96ED
:103180000FB6F894DEBF0FBECDBFDF91CF911F9178
:10319000089569857A858B859C850E94EC1588CF7A
:1031A000EF92FF920F931F93CF93DF938C01892BA4
:1031B00089F0F12CEE24E394E8012196F801849142
:1031C000843709F457C0A0F4823009F43EC048F4B3
:1031D0008130D1F0DF91CF911F910F91FF90EF904F
:1031E00008959CEF980F9037A8F70E94E8110AC045
:1031F000853709F44CC09CE7980F903758F78F77C4
:103200000E94C4128E0116C00E5F1F4FFE018491F2
:1032100090E2980F983060F48770FE2D01C0FF0F88
:103220008A95EAF78F2F0E947E1C0E94A51C02C07F
:103230000E94E8118F2D815008F4BECFEFE9FFE026
:103240003197F1F700C00000F6CF0E5F1F4FFE016F
:10325000849190E2980F983050F48770FE2D01C051
:10326000FF0F8A95EAF78F2F0E94841CDECF0E9401
:10327000C412E0CF0E5F1F4FFE01C491C150D0F2C7
:103280008FE99FE00197F1F700C00000F7CF0E5FD4
:103290001F4FFE01F490CECF089560935C027093AF
:1032A0005D0280935E0290935F020C949A15CF9317
:1032B000DF9300D000D0CDB7DEB769837A838B83EC
:1032C0009C8380915C0290915D02A0915E02B0911E
:1032D0005F0229813A814B815C81822B932BA42B45
:1032E000B52B80935C0290935D02A0935E02B09335
:1032F0005F020F900F900F900F90DF91CF910C9481
:103300009A15CF93DF9300D000D0CDB7DEB7698395
:103310007A838B839C8380915C0290915D02A09163
:103320005E02B0915F0229813A814B815C818223E8
:103330009323A423B52380935C0290935D02A09312
:103340005E02B0935F020F900F900F900F90DF918D
:10335000CF910C949A15CF93DF9300D000D0CDB7C6
:10336000DEB769837A838B839C8380915C02909122
:103370005D02A0915E02B0915F0229813A814B818A
:103380005C8182279327A427B52780935C029093C2
:103390005D02A0935E02B0935F020F900F900F90BA
:1033A0000F90DF91CF910C949A15109258021092C1
:1033B000590210925A0210925B020C949A1541E045
:1033C00050E060E070E004C0440F551F661F771F97
:1033D0008A95D2F7409358025093590260935A024B
:1033E00070935B020C949A15282F81E090E0A0E086
:1033F000B0E004C0880F991FAA1FBB1F2A95D2F7FF
:10340000409158025091590260915A0270915B02AA
:10341000842B952BA62BB72B80935802909359029F
:10342000A0935A02B0935B020C949A1541E050E0CD
:1034300060E070E004C0440F551F661F771F8A9537
:10344000D2F7409550956095709580915802909173
:103450005902A0915A02B0915B0284239523A623BE
:10346000B7238093580290935902A0935A02B093C5
:103470005B020C949A15282F81E090E0A0E0B0E068
:1034800004C0880F991FAA1FBB1F2A95D2F740912D
:1034900058025091590260915A0270915B02842740
:1034A0009527A627B7278093580290935902A09397
:1034B0005A02B0935B020C949A15CF93DF9300D01D
:1034C00000D0CDB7DEB769837A838B839C838091EC
:1034D000580290915902A0915A02B0915B02298141
:1034E0003A814B815C81822B932BA42BB52B80934B
:1034F000580290935902A0935A02B0935B020F9026
:103500000F900F900F90DF91CF910C949A15CF935D
:10351000DF9300D000D0CDB7DEB769837A838B8389
:103520009C838091580290915902A0915A02B091C7
:103530005B0229813A814B815C8182239323A423FE
:10354000B5238093580290935902A0935A02B093E6
:103550005B020F900F900F900F90DF91CF910C9422
:103560009A15CF93DF9300D000D0CDB7DEB7698333
:103570007A838B839C838091580290915902A09109
:103580005A02B0915B0229813A814B815C8182278A
:103590009327A427B5278093580290935902A093AC
:1035A0005A02B0935B020F900F900F900F90DF9133
:1035B000CF910C949A150895E82F27E1929FE00D82
:1035C00011248E2F877041E001C0440F8A95EAF7DD
:1035D000E695E695E69585E0E89FF0011124E15136
:1035E000FE4F30E020E070E05191DF011197CB01F8
:1035F000022E02C0969587950A94E2F78170819514
:103600008527842385278C932F5F3F4F25303105F5
:1036100059F70895E82F27E1929FE00D11249E2F7E
:103620009770E695E695E69585E0E89FF001112410
:10363000E151FE4F50E040E080E0219130E0092E62
:1036400002C0369527950A94E2F721703327042E9D
:1036500001C0220F0A94EAF7822B4F5F5F4F45307B
:10366000510559F70895BF92CF92DF92EF92FF92E2
:103670000F931F93CF93DF938C01C0905802D0908B
:103680005902E0905A02F0905B0280915C029091A6
:103690005D02A0915E02B0915F02C82AD92AEA2A8F
:1036A000FB2ACFE1D0E0BC2ED701C6010C2E04C00E
:1036B000B695A795979587950A94D2F780FD0EC089
:1036C000219788F7B12C8B2DDF91CF911F910F910E
:1036D000FF90EF90DF90CF90BF900895B8018C2FAE
:1036E0000E94F20C019761F3EECFCF93DF93D82FB6
:1036F000C92F0E94331B6D2F7C2FDF91CF910C942B
:10370000F20C1F93CF93DF93162FD72F9091B60112
:10371000992339F0862F972FDF91CF911F910C9429
:10372000751B882391F0862F972F0E94331BC82F7B
:10373000682F812F9D2F0E94DC1A612F7D2F8C2FE7
:10374000DF91CF911F910C94F20C862F972F0E943E
:103750000A1BC82FF2CF80916002859585958595CB
:103760000895809160028770089598E0899F900184
:103770001124622B609360020C94F4199091600202
:103780008095892380936002282F277061F4282F69
:10379000082E000C330B9217130629F0859585959A
:1037A00085950C94161A089590916002977081E0A7
:1037B00009F480E00895909112019923E1F090912D
:1037C000B60297FF18C0E82FE695E695E695EF312B
:1037D00039F12091000130910101E20FF32FF11D29
:1037E000877021E030E001C0220F8A95EAF78181DD
:1037F000822B818308952091000130910101F9010C
:1038000032969FEF40E05191851751F09F3F19F498
:10381000511101C0942F4F5F4E31A9F79F3F09F41A
:103820000895290F311D97FD3A95F9018283089576
:1038300090911201992301F19091B60297FF1CC05B
:10384000E82FE695E695E695EF3139F120910001F4
:1038500030910101E20FF32FF11D877021E030E07C
:10386000A90102C0440F551F8A95E2F7CA0180954D
:103870009181892381830895209100013091010174
:10388000F9013296205E3F4F9191891303C0DF0109
:1038900011971C92E217F307B9F7089581E090E0C1
:1038A000E0910001F0910101E80FF91F10820196EB
:1038B00080329105A9F7089590918402982B9093F6
:1038C00084020895982F9095809184028923809393
:1038D0008402089510928402089590918302982B97
:1038E000909383020895982F909580918302892365
:1038F000809383020895109283020895909182022A
:10390000982B909382020895982F9095809182022F
:1039100089238093820208951092820208958093F1
:103920006102089510926102089520910001309182
:103930000101F9013196205E3F4F80E09191911194
:103940008F5FE217F307D1F70895E0910001F0913E
:103950000101809184028083E0910001F0910101D6
:10396000808190918302892B8083E0910001F09106
:103970000101808190918202892B80839091610264
:10398000992361F0E0910001F09101018081892B80
:1039900080830E94951C8111109261028091000128
:1039A000909101010C94A5106DEE7EEF90E080E007
:1039B0000E945B2A60E082E090E00E94492A60E079
:1039C00083E090E00E94492A60E084E090E00E9459
:1039D000492A60E085E090E00C94492A90E080E07C
:1039E0000E94432A9C0181E02D3E3E4F09F080E079
:1039F000089582E090E00C943B2A682F82E090E0EA
:103A00000C94492A83E090E00C943B2A682F83E0D1
:103A100090E00C94492A84E090E00C943B2A682FB3
:103A200084E090E00C94492A8091BC02843039F102
:103A30001092860288E190E020E40FB6F894A895F1
:103A4000809360000FBE2093600080E00E94D30C42
:103A500083B7817F846083BF83B7816083BF78949D
:103A6000889583B78E7F83BF0FB6F894A895809111
:103A70006000886180936000109260000FBE08951E
:103A800008950895CF93DF9300D000D00F92CDB763
:103A9000DEB70E94401D0E94810F0E94411D1D82C1
:103AA0008D810E947A10672B682B692B71F48D81B0
:103AB0008F5F8D838730A1F780E00F900F900F907C
:103AC0000F900F90DF91CF91089581E0F6CF0E9483
:103AD000AE150E9499100C94D30C1F921FB61F9222
:103AE00011248F939F93AF93BF938091860281118E
:103AF00013C08091B2029091B302A091B402B09130
:103B0000B5024196A11DB11D8093B2029093B302FC
:103B1000A093B402B093B502BF91AF919F918F91E2
:103B20001F901FBE1F90189582E084BD93E095BD45
:103B30009AEF97BD80936E0008952FB7F894809107
:103B4000B2029091B302A091B402B091B5022FBF1E
:103B50000895CF92DF92EF92FF929C014FB7F894B5
:103B60008091B2029091B302A091B402B091B502DB
:103B70004FBF6C017D01EE24FF24A90170E060E0DD
:103B8000C416D506E606F70638F0821B930BFF90A5
:103B9000EF90DF90CF9008950197F7CF1F921FB657
:103BA0001F9211248F939F93AF93BF938091B20282
:103BB0009091B302A091B402B091B5020196A11DFB
:103BC000B11D8093B2029093B302A093B402B0935C
:103BD000B502BF91AF919F918F911F901FBE1F9013
:103BE00018950E94E425F8942FEF87EA91E621507A
:103BF00080409040E1F700C0000087E090EBDC01DE
:103C00008093C5029093C602A093C702B093C802E6
:103C100088E19CE00FB6F894A895809360000FBEF1
:103C200090936000FFCFAF92BF92CF92DF92EF925E
:103C3000FF920F931F93CF93C0E0A82EB12C8C2F2F
:103C40000E947A106B017C0110E000E0D701C601F0
:103C5000002E04C0B695A795979587950A94D2F73C
:103C600080FF13C0602F7C2F80E00E94D60CA81626
:103C7000B90659F481E0CF911F910F91FF90EF9019
:103C8000DF90CF90BF90AF9008950F5F1F4F073127
:103C90001105E1F6CF5FC73091F680E0ECCFCF930E
:103CA000C82F8CE20E94131E882321F08C2FCF9105
:103CB0000C94131E80E0CF910895CF93DF9300D032
:103CC00000D0CDB7DEB70E94EE1C811102C00E9469
:103CD000D41C95E6998308C00E94810F8FE39CE96C
:103CE0000197F1F700C00000A981A150A983A1119B
:103CF000F3CF89E20E944F1E811110C18AE20E9417
:103D00004F1E81110E94D41C85E00E944F1E81111C
:103D10000E94F11D0E94F91C8093850287E00E9499
:103D20004F1E882371F08BE10E944F1E882309F4F7
:103D3000D1C090918502892F8D7F91FF8260809301
:103D40008502809185020E94FD1C0E940B1D90E05F
:103D50009093B7028093B60280EE0E944F1E882394
:103D600041F09091B602892F8E7F90FF8160809301
:103D7000B60289E30E944F1E882341F09091B6025B
:103D8000892F8D7F91FF82608093B60282EE0E9420
:103D90004F1E882341F09091B602892F8B7F92FFAE
:103DA00084608093B60286EE0E944F1E882341F005
:103DB0009091B602892F877F93FF88608093B60227
:103DC00083EE0E944F1E882341F09091B602892F06
:103DD0008F7E94FF80618093B60285E30E944F1E20
:103DE000882341F09091B602892F8F7D95FF8062E4
:103DF0008093B60281E30E944F1E882341F0909188
:103E0000B602892F8F7B96FF80648093B60281E192
:103E10000E944F1E882341F09091B602892F97FB94
:103E200087F980588093B6028091B6020E940F1DD8
:103E300087E20E944F1E89838EE10E944F1E8823D5
:103E400019F0B981B260B9838FE10E944F1E8823B7
:103E500019F029812460298380E20E944F1E882363
:103E600019F039813860398381E20E944F1E88231E
:103E700019F049814061498382E20E944F1E8823E4
:103E800019F059815062598383E20E944F1E8823A2
:103E900019F089818064898384E20E944F1E8823FF
:103EA000B1F199819068998389810E94061D3981B9
:103EB000232F30E050E040E029833A834B835C833A
:103EC000CA01B9010F900F900F900F90DF91CF9121
:103ED0000C944D198EE00E944F1E882339F090916A
:103EE0008502892F8B7F92FF846029CF80E10E9419
:103EF0004F1E90918502882329F0892F877F93FF99
:103F000088601DCF892F8E7F90FF816018CFA98197
:103F1000A111CACF0E94021D282FCBCF0F900F9066
:103F20000F900F90DF91CF9108958091890280FFCB
:103F300012C06091050185E0689FB001112475955C
:103F400067957595679560387105A8F561157105D8
:103F5000A1F1862F089581FF09C06091050185E0D8
:103F6000689FB001112475956795EDCF60910501AB
:103F700082FD0AC080918A028823D1F090910401C9
:103F800060910501891728F085E0689FB001112430
:103F9000DACF869FB001112485E0869F9001879F2C
:103FA000300D1124692F70E0C9010E940D2ACBCF7A
:103FB00065E070E0CECF8FE7089581E008958091AD
:103FC000890280FF0CC06091030170E075956795D0
:103FD000759567956115710549F1862F089581FFE3
:103FE00006C06091030170E075956795F3CF60910D
:103FF000030182FD0BC090918A029923A1F0609188
:10400000020180910301961738F0682F70E0603844
:10401000710500F38FE70895899FC001112470E0B6
:104020000E940D2AF4CF61E070E0D7CF81E00895BF
:10403000803F31F40E94951F819580938D020895F1
:10404000813F19F40E94951FF8CF823F31F40E94FE
:10405000951F819580938C020895833F19F40E94E7
:10406000951FF8CF893F29F40E94DF1F80938E02AD
:1040700008958A3F21F40E94DF1F8195F7CF8B3F7F
:1040800031F40E94DF1F819580938F0208958C3F49
:1040900019F40E94DF1FF8CF843F31F480918B0226
:1040A000816080938B020895853F21F480918B027B
:1040B0008260F7CF863F21F480918B028460F1CF3C
:1040C000873F21F480918B028860EBCF883F21F4F9
:1040D00080918B028061E5CF8D3F31F48091890220
:1040E00081608093890208958E3F21F48091890236
:1040F0008260F7CF8F3FB9F7809189028460F1CF5A
:1041000090918C02803F41F480918D0287FD109246
:104110008D02992371F00895813F29F480918D02D9
:104120001816ACF3F6CF823F81F497FFF2CF1092CE
:104130008C0280918D0290918E02892B90918F023A
:10414000892B49F710928A020895833F19F41916B2
:1041500074F3DFCF893F39F480918E021816CCF6C4
:1041600010928E02D6CF8A3F29F480918E0287FF6B
:10417000D0CFF6CF8B3F39F480918F0287FFC9CF24
:1041800010928F02C6CF8C3F29F480918F021816AF
:10419000BCF3BFCF843F31F480918B028E7F80933C
:1041A0008B02B7CF853F21F480918B028D7FF7CFB3
:1041B000863F21F480918B028B7FF1CF873F21F4E2
:1041C00080918B02877FEBCF883F21F480918B0217
:1041D0008F7EE5CF8D3F31F4809189028E7F809371
:1041E000890297CF8E3F21F4809189028D7FF7CF8E
:1041F0008F3F09F08ECF809189028B7FF0CF8BE8C3
:1042000092E00E94B0100E949D1D909388028093BE
:10421000870208951F93CF93DF9300D000D000D082
:10422000CDB7DEB780918702909188020E94A91DC8
:10423000AC0180918A022091060130E0811106C014
:10424000209107019AE0299F9001112442175307FA
:1042500088F020918C02A0918D02A98310918E028A
:10426000B0918F02BE8321110FC09A2F912B9B2BEF
:1042700009F0B2C026960FB6F894DEBF0FBECDBFD0
:10428000DF91CF911F9108958F3F19F08F5F809339
:104290008A02121624F40E94951F80938C0280914A
:1042A0008C0287FF05C00E94951F819580938C0228
:1042B0002981121624F40E94951F80938D0280910B
:1042C0008D0287FF05C00E94951F819580938D0206
:1042D00080918C02882309F455C030918D023D8372
:1042E000332309F44FC0282F880F330B440B550B91
:1042F00029833A834B835C83CA01B9010E94142944
:1043000023E333E343E35FE369837A838B839C8313
:1043100069817A818B819C810E94782969837A8363
:104320008B839C8369817A818B819C810E94DC28AC
:1043300060938C028D81082E000C990BAA0BBB0B8D
:1043400089839A83AB83BC83BC01CD010E9414296D
:1043500023E333E343E35FE369837A838B839C83C3
:1043600069817A818B819C810E94782969837A8313
:104370008B839C8369817A818B819C810E94DC285C
:1043800060938D02111624F40E94DF1F80938E0229
:1043900080918E0287FF05C00E94DF1F8195809368
:1043A0008E029E81191624F40E94DF1F80938F02D3
:1043B00080918F0287FF05C00E94DF1F8195809347
:1043C0008F0226960FB6F894DEBF0FBECDBFDF91E9
:1043D000CF911F910C94FF208F3F09F057CF68CFEA
:1043E00085E0EBE8F2E0DF011D928A95E9F7109293
:1043F0008A021092890208958091B0020895CF93A5
:10440000DF9300D00F92CDB7DEB72091BC022430ED
:1044100019F523E029838A839B832093E9008FEF9A
:104420009091E800815095FD06C095ED9A95F1F7C1
:1044300000008111F5CF8091E80085FF0DC050E0AC
:1044400040E063E070E0CE0101960E945C24809120
:10445000E8008E778093E8000F900F900F90DF9127
:10446000CF910895CF93DF9300D00F92CDB7DEB7F1
:104470009C018091BC02843031F582E08983205810
:1044800031093B832A8383E08093E9008FEF909189
:10449000E800815095FD06C095ED9A95F1F7000072
:1044A0008111F5CF8091E80085FF0DC050E040E01C
:1044B00063E070E0CE0101960E945C248091E800E8
:1044C0008E778093E8000F900F900F90DF91CF913F
:1044D00008952091BC022430F1F422E02093E900F9
:1044E0002FEF3091E800215035FD06C035ED3A95AB
:1044F000F1F700002111F5CF2091E80025FF0BC056
:1045000050E040E065E070E00E945C248091E800AB
:104510008E778093E8000895CF93DF93D82FC92F2B
:104520008091BC028430F1F4909112019923E9F05A
:104530009091B60297FF19C08093E9008FEF909198
:10454000E800815095FD06C095E19A95F1F70000CD
:104550008111F5CF8091E80050E040E060E270E02A
:1045600085FD1AC0DF91CF91089581E08093E90025
:104570008FEF9091E800815095FD06C095ED9A95DA
:10458000F1F700008111F5CF8091E80085FFEACFB7
:1045900050E040E068E070E08D2F9C2F0E945C248A
:1045A0008091E8008E778093E80080E2ED2FFC2F69
:1045B000A0E9B2E001900D928A95E1F7D3CF809106
:1045C000BB02811109C00E94E4250E94412680910E
:1045D000E20084608093E20008951092BB02089587
:1045E000089508950C94671D42E061EC81E00E94FB
:1045F000602542E061EC82E00E94602542E061ECCF
:1046000083E00E94602542E261EC84E00C94602526
:104610008091BE02893089F148F4823009F494C057
:10462000833009F44FC0813041F008958A3009F495
:104630007BC08B3009F461C008958091BD02813A3E
:1046400009F03FC08091E800877F8093E800809167
:10465000C1029091C202892B61F460E280E992E08C
:1046600070E00E94AB248091E8008B778093E80093
:10467000089560E090E080E0F3CF8091BD02813248
:1046800001F58091C1029091C202009711F0039749
:10469000C1F48091E800877F8093E8008091E80072
:1046A00082FF0BC08091F1008093B0028091E800FE
:1046B0008B778093E8000C9494258091BC02811143
:1046C000EDCF08958091BD02813AD9F78091C10262
:1046D0009091C202892BA9F78091E800877F80938F
:1046E000E8008091E80080FFFCCF80911201809368
:1046F000F1008091E8008E77DCCF8091BD0281329D
:1047000001F78091C1029091C202892BD1F680916C
:10471000E800877F8093E8000E9494258091BF0283
:10472000809312010C94AE158091BD02813249F63E
:104730008091E800877F8093E8000E949425809113
:10474000C0028093B10208958091BD02813A09F0C0
:10475000B8CF8091E800877F8093E8008091E800DF
:1047600080FFFCCF8091B102C2CF84B7877F84BF26
:104770000FB6F894A89580916000886180936000DE
:10478000109260000FBE80E880936100109261007B
:104790000E94E8100E94E4250E9441268091E200D8
:1047A00084608093E20078940E94C1280E94EA10FD
:1047B00088E091E00E9494108091BC02853019F04D
:1047C0000E94F010F9CF0E94141D8091BA02882334
:1047D00099F30E94421D882379F30E944624ECCF6E
:1047E0009C01DA01892F992783309105C1F068F483
:1047F0008130910509F445C0029761F48DE690E09F
:104800002CEF34E12D933C93089581329105E1F032
:10481000829739F190E080E030E020E0F3CFC901E9
:104820009927213059F08230910559F0E8EFF4E1F1
:10483000892B81F7849190E09F01E4CFE0EEF4E1D1
:10484000F9CFECECF4E1F6CF643020F7E62FF0E09E
:10485000EE0FFF1FE35CFE4F2081318189E090E085
:10486000D1CF6430B8F670E0FB01EE0FFF1FEB5CB8
:10487000FE4F208131816F5C7E4FFB01808190E093
:10488000C1CF82E190E029E635E1BCCF80E189BD6E
:1048900082E189BD09B400FEFDCF8091D8008F7DF3
:1048A0008093D8008091E00082608093E000809146
:1048B000E00081FDFCCF0895AF92BF92CF92DF92CE
:1048C000FF920F931F93CF93DF936C01EB018A014B
:1048D0000E94B325F82E811123C00115110539F06E
:1048E000F80180819181C81BD90BC80ED91EB12C4B
:1048F000A12C2097A9F08091E80085FD22C080912D
:10490000E8008E778093E80001151105A1F0F80109
:1049100080819181A80EB91EB182A08285E0F82E17
:104920008F2DDF91CF911F910F91FF90DF90CF904E
:10493000BF90AF9008950E94B3258823D1F2F82E3E
:10494000EFCFF60181916F018093F1002197FFEF86
:10495000AF1ABF0ACECFFC01CB012091C302309128
:10496000C4022617370790F0009729F42091E80039
:104970002E772093E80040E0009751F4411108C0E1
:104980008091E80082FF31C080E00895C901F3CF33
:104990002091BC022223A9F12530A9F12091E80041
:1049A00023FD2DC02091E80022FDEACF2091E800F0
:1049B00020FFE2CF3091F3002091F200009719F030
:1049C0002830310558F041E02830310509F040E049
:1049D0002091E8002E772093E800CECF41914093BC
:1049E000F10001972F5F3F4FE9CF8091BC028823F0
:1049F00041F0853041F08091E80083FFC1CF81E034
:104A0000089582E0089583E00895FC01CB01209190
:104A1000C3023091C4022617370790F0009729F49B
:104A20002091E8002E772093E80040E0009751F4B1
:104A3000411108C08091E80082FF32C080E00895F3
:104A4000C901F3CF2091BC022223B1F12530B1F18D
:104A50002091E80023FD2EC02091E80022FDEACF3E
:104A60002091E80020FFE2CF3091F3002091F20086
:104A7000009719F02830310558F041E02830310511
:104A800009F040E02091E8002E772093E800CECF97
:104A900044914093F100319601972F5F3F4FE8CF4B
:104AA0008091BC02882341F0853041F08091E8007C
:104AB00083FFC0CF81E0089582E0089583E00895E8
:104AC000982F973028F08F708093E90081E0089547
:104AD0009093E900242F762F50E0981731F07091D1
:104AE000EC002091ED005091F00021FD02C09F5F8D
:104AF000E8CF3091EB003E7F3093EB003091ED003A
:104B00003D7F3093ED003091EB0031603093EB004E
:104B10007093EC002093ED005093F0002091EE0094
:104B200027FDE5CF80E008958091BD0287FF13C087
:104B30008091E80082FF06C08091E8008B77809327
:104B4000E80004C08091BC028111F2CF08958091E9
:104B5000BC028823D9F38091E80080FFF8CF8091D0
:104B6000E8008E77ECCF2091E4003091E50095E6E7
:104B7000A9012091EC00822F817020FF06C0809156
:104B8000E80080FF06C080E008952091E80022FD43
:104B90001AC08091BC02882389F0853089F0809109
:104BA000EB0085FD0FC02091E4003091E500421735
:104BB0005307F9F29150E1F684E0089582E00895F8
:104BC00083E0089581E008950E9452260E945A26AB
:104BD000E0EEF0E0808181608083E8EDF0E08081AC
:104BE0008F77808319BCA7EDB0E08C918E7F8C937A
:104BF00080818F7E80831092BB0208950F931F9354
:104C0000CF93DF930E9452260E945A26C8EDD0E02F
:104C100088818F77888388818068888388818F7D69
:104C2000888319BC1092BC021092B8021092BA028A
:104C30001092B90200EE10E0F80180818B7F808332
:104C400088818160888342E060E080E00E94602586
:104C5000E1EEF0E080818E7F8083E2EEF0E0808103
:104C600081608083808188608083F80180818E7F6D
:104C70008083888180618883DF91CF911F910F911C
:104C80000895E8EDF0E080818F7E8083E7EDF0E02D
:104C900080818160808384E082BF81E08093BB0259
:104CA0000C94FE25E8EDF0E080818E7F80831092E9
:104CB000E20008951092DA001092E10008951F9228
:104CC0000F920FB60F9211242F933F934F935F9340
:104CD0006F937F938F939F93AF93BF93EF93FF93C4
:104CE0008091E10082FF0BC08091E20082FF07C04B
:104CF0008091E1008B7F8093E1000E94C028809129
:104D0000DA0080FF19C08091D80080FF15C0809123
:104D1000DA008E7F8093DA008091D90080FF94C002
:104D200080E189BD82E189BD09B400FEFDCF81E04B
:104D30008093BC020E94DF228091E10080FF19C0B5
:104D40008091E20080FF15C08091E2008E7F809309
:104D5000E2008091E20080618093E2008091D800BF
:104D600080628093D80019BC85E08093BC020E94C9
:104D7000F1228091E10084FF29C08091E20084FF4C
:104D800025C080E189BD82E189BD09B400FEFDCF67
:104D90008091D8008F7D8093D8008091E1008F7E34
:104DA0008093E1008091E2008F7E8093E200809109
:104DB000E20081608093E2008091B802882309F4C8
:104DC00049C084E08093BC020E94F2228091E100FD
:104DD00083FF29C08091E20083FF25C08091E1001C
:104DE000877F8093E10082E08093BC021092B8023A
:104DF0008091E1008E7F8093E1008091E2008E7FC0
:104E00008093E2008091E20080618093E20042E0C2
:104E100060E080E00E9460258091F00088608093CF
:104E2000F0000E94F022FF91EF91BF91AF919F910E
:104E30008F917F916F915F914F913F912F910F9043
:104E40000FBE0F901F90189519BC1092BC020E94C3
:104E5000ED2272CF8091E30087FD02C081E0B2CFE6
:104E600083E0B0CF1F920F920FB60F9211242F93B1
:104E70003F934F935F936F937F938F939F93AF93E2
:104E8000BF93CF93DF93EF93FF93D091E900DF704F
:104E90008091EC00C82FC17080FDC0E81092E9003D
:104EA0008091F000877F8093F00078940E947627AD
:104EB0001092E9008091F00088608093F000CD2B83
:104EC000CF70C093E900FF91EF91DF91CF91BF9137
:104ED000AF919F918F917F916F915F914F913F9192
:104EE0002F910F900FBE0F901F9018951F93CF9387
:104EF000DF93CDB7DEB7AA970FB6F894DEBF0FBE2B
:104F0000CDBF8DEB92E0FC0101962091F100208352
:104F100022E0853C9207B9F70E9408238091E800BF
:104F200083FF16C18091BD029091BE029A3008F0B5
:104F30000FC1E92FF0E0EB56F54D0C94212A803893
:104F400081F0823809F004C18091C1028F70809392
:104F5000E9008091EB0085FB882780F91092E90039
:104F600006C08091B9029091BA029111826090912D
:104F7000E800977F9093E8008093F1001092F10091
:104F80008091E8008E77E0C0882309F4CEC082309B
:104F900009F0DEC08091BF028111D1C08091C102B1
:104FA0008F7009F4D5C08093E9002091EB0020FFB9
:104FB000C6C0933031F48091EB0080628093EB00A7
:104FC000BEC09091EB0090619093EB0021E030E047
:104FD00001C0220F8A95EAF72093EA001092EA00B6
:104FE0008091EB008860EACF8111B2C01091BF02BE
:104FF0001F778091E3008078812B8093E30080917C
:10500000E800877F8093E8000E9494258091E80063
:1050100080FFFCCF8091E30080688093E30082E012
:10502000111183E08093BC0293C08058823008F055
:105030008FC08091BF029091C0028C3D23E0920707
:10504000A1F583E08A838AE289834FB7F894DE0171
:10505000139620E03EE051E2E32FF0E0509357003A
:10506000E49120FF03C0E295EF703F5FEF708E2F59
:1050700090E0EA30C0F0C7968D939D932F5F243166
:1050800059F74FBF8091E800877F8093E8006AE27C
:1050900070E0CE0101960E94AB248091E8008B77EE
:1050A0008093E80055C0C096E7CFAE014F5F5F4FD9
:1050B0006091C1020E94F023BC01892B09F448C011
:1050C0008091E800877F8093E80089819A810E941F
:1050D0000525E3CF8038E1F58091E800877F809354
:1050E000E8008091B8028093F1004ACF811130C06E
:1050F0009091BF02923060F58091E800877F8093A5
:10510000E8009093B8020E9494258091B802882309
:1051100011F084E005C08091E30087FDFACF81E0C3
:105120008093BC020E94F42213C08091BF028130A0
:1051300079F481E0933009F080E08093BA02109214
:10514000E9008091E800877F8093E8000E94942521
:105150008091E80083FF0AC08091E800877F8093F8
:10516000E8008091EB0080628093EB00AA960FB676
:10517000F894DEBF0FBECDBFDF91CF911F91089590
:105180000895CF938091BC028823A1F0C091E900DB
:10519000CF709091EC00892F817090FD80E8C82B32
:1051A0001092E9008091E80083FD0E947627CF707D
:1051B000C093E900CF9108950E94E3286894B1114B
:1051C0000C94722908950E94572988F09F5798F0EF
:1051D000B92F9927B751B0F0E1F0660F771F881FFC
:1051E000991F1AF0BA95C9F714C0B13091F00E9416
:1051F0007129B1E008950C947129672F782F8827C1
:10520000B85F39F0B93FCCF3869577956795B3953C
:10521000D9F73EF490958095709561957F4F8F4FAB
:105220009F4F0895E89409C097FB3EF490958095B0
:10523000709561957F4F8F4F9F4F9923A9F0F92F5C
:1052400096E9BB279395F695879577956795B795DA
:10525000F111F8CFFAF4BB0F11F460FF1BC06F5FC0
:105260007F4F8F4F9F4F16C0882311F096E911C0D2
:10527000772321F09EE8872F762F05C0662371F0F3
:1052800096E8862F70E060E02AF09A95660F771F07
:10529000881FDAF7880F9695879597F9089557FD37
:1052A0009058440F551F59F05F3F71F04795880F94
:1052B00097FB991F61F09F3F79F08795089512162B
:1052C00013061406551FF2CF4695F1DF08C01616D7
:1052D00017061806991FF1CF869571056105089488
:1052E0000895E894BB2766277727CB0197F908959F
:1052F0000E948B290C94FC290E94EE2938F00E9410
:10530000F52920F0952311F00C94E5290C94EB2954
:1053100011240C9472290E944F2970F3959FC1F3B8
:10532000950F50E0551F629FF001729FBB27F00D53
:10533000B11D639FAA27F00DB11DAA1F649F6627A8
:10534000B00DA11D661F829F2227B00DA11D621FF7
:10535000739FB00DA11D621F839FA00D611D221FB1
:10536000749F3327A00D611D231F849F600D211D95
:10537000822F762F6A2F11249F5750409AF0F1F018
:1053800088234AF0EE0FFF1FBB1F661F771F881F81
:1053900091505040A9F79E3F510580F00C94E529AB
:1053A0000C9472295F3FE4F3983ED4F38695779589
:1053B0006795B795F795E7959F5FC1F7FE2B880F27
:1053C000911D9695879597F9089597F99F6780E8BD
:1053D00070E060E008959FEF80EC089500240A9447
:1053E0001616170618060906089500240A941216C0
:1053F0001306140605060895092E0394000C11F4F3
:10540000882352F0BB0F40F4BF2B11F460FF04C09F
:105410006F5F7F4F8F4F9F4F089597FB072E16F4B6
:10542000009407D077FD09D00E94272A07FC05D0F9
:105430003EF4909581959F4F0895709561957F4FAB
:105440000895EE0FFF1F0590F491E02D0994AA1B1B
:10545000BB1B51E107C0AA1FBB1FA617B70710F05F
:10546000A61BB70B881F991F5A95A9F78095909591
:10547000BC01CD010895F999FECF92BD81BDF89A86
:10548000992780B50895A8E1B0E042E050E00C947F
:10549000632A262FF999FECF92BD81BDF89A019714
:1054A00000B4021639F01FBA20BD0FB6F894FA9A6C
:1054B000F99A0FBE08950196272F0E944A2A0C944C
:1054C000492ADC01CB01FC01F999FECF06C0F2BDEF
:1054D000E1BDF89A319600B40D9241505040B8F7B2
:1054E0000895F894FFCF3E0C4A0C4E0C520C560C0B
:1054F0005A0C5E0C620C660C6A0C6E0C720C760C0C
:105500007A0C7E0C820C860C8A0C59135913B11339
:10551000B113F5131114891389131C148913E4149E
:10552000E4144F158913891358159F27C427A828F9
:0E553000C427A828F4271528A8286A2876285A
:10553E0062022808140A321EFC218C2269223222B1
:10554E00FF21013760616263646566679091929393
:10555E0094959697C0C1C2C3C4C530313233343529
:10556E0036404D36393716EA15B4157B150E15270C
:06557E001540155915004F
:00000001FF
