:100000000C94AC080C94F3080C94F3080C94F308CB
:100010000C94F3080C94F3080C94F3080C94F30874
:100020000C94F3080C94F3080C94CF230C94A224A2
:100030000C94DD1A0C94F3080C94F3080C94F30858
:100040000C94F3080C94F3080C94F3080C94F30844
:100050000C94F3080C943E1B0C94F3080C94F308D6
:100060000C94F3080C94F3080C94F3080C94F30824
:100070000C94F3080C94F3080C94F3080C94F30814
:100080000C94F3080C94F3080C94F3080C94F30804
:100090000C94F3080C94F3080C94F3080C94F308F4
:1000A0000C94F3080C94F3080C94F308000035004A
:1000B0001E001F002000210022002300000000007D
:1000C00000000000230024002500260027002D004A
:1000D0002E022A002B002B0014001A000800150025
:1000E0001700290000000000000029001C00180073
:1000F0000C00120013002F0230023102E400E40071
:1001000004001600070009000A002C00000000008F
:1001100000002C000B000D000E000F003300340017
:10012000280000000000E100E1001D001B000600A7
:10013000190005000000000000000000050011008B
:1001400010003600370038002800000000000000D2
:10015000000000000000000000002C002C00000047
:1001600000002C002C000000000000000000000037
:10017000000000000000000000000000000000007F
:10018000E000E200E30000000000E700E6000151AB
:10019000000000000000000000000000000001005E
:1001A0003A003B003C003D003E003F0000000000E4
:1001B000000000003F0040004100420043004400B6
:1001C00045000100010001000100010001000100E3
:1001D000010000700000000000000070010001003C
:1001E0000100010001000100010001000100010007
:1001F00001000100010001000100010000000000F9
:1002000000000100010001000100010001000100E7
:1002100001000000000001000100010001000100D8
:1002200001000100000000000000000001000100CA
:1002300001000100010001000100000000000000B9
:1002400000000000000000000000010001000000AC
:10025000000001000100000000000000000000009C
:10026000000000000000000000000000000000008E
:100270000100010001000000000001000100010078
:10028000000000000000000000000000000001006D
:100290000100010001000100010001000000000058
:1002A0000000000001000100010001000100010048
:1002B0000100010001000100010001000100010036
:1002C0000100010000000000000001000100010029
:1002D0000100010001000100010001000100010016
:1002E0000100010001000100010001000000000008
:1002F00000000100010001000100010001000100F7
:1003000001000000000001000100010001000100E7
:1003100001000100000000000000000001000100D9
:1003200001000100010001000100000000000000C8
:1003300000000000000000000000010001000000BB
:1003400000000100010000000000000000000000AB
:10035000000000000000000000000000000000009D
:100360000100010001000000000001000100010087
:10037000000000000000000000000000000001007C
:100380000100010001000100010001000000000067
:100390000000000001000100010001000100010057
:1003A0000100010001000100010001000100010045
:1003B0000100010000000000000001000100010038
:1003C0000100010001000100010001000100010025
:1003D0000100010001000100010001000000000017
:1003E0000000010001000100010001000100010006
:1003F00001000000000001000100010001000100F7
:1004000001000100000000000000000001000100E8
:1004100001000100010001000100000000000000D7
:1004200000000000000000000000010001000000CA
:1004300000000100010000000000000000000000BA
:1004400000000000000000000000000000000000AC
:100450000100010001000000000001000100010096
:10046000000000000000000000000000000001008B
:100470000100010001000100010001000000000076
:100480000000000001000100010001000100010066
:100490000100010001000100010001000100010054
:1004A0000100010000000000000001000100010047
:1004B0000100010001000100010001000100010034
:1004C0000100010001000100010001000000000026
:1004D0000000010001000100010001000100010015
:1004E0000100000000000100010001000100010006
:1004F00001000100000000000000000001000100F8
:1005000001000100010001000100000000000000E6
:1005100000000000000000000000010001000000D9
:1005200000000100010000000000000000000000C9
:1005300000000000000000000000000000000000BB
:1005400001000100010000000000010001000100A5
:10055000000000000000000000000000000001009A
:100560000100010001000100010001000000000085
:100570000000000001000100010001000100010075
:100580000100010001000100010001000100010063
:100590000100010000000000000001000100010056
:1005A0000100010001000100010001000100010043
:1005B0000100010001000100010001000000000035
:1005C0000000010001000100010001000100010024
:1005D0000100000000000100010001000100010015
:1005E0000100010000000000000000000100010007
:1005F00001000100010001000100000000000000F6
:1006000000000000000000000000010001000000E8
:1006100000000100010000000000000000000000D8
:1006200000000000000000000000000000000000CA
:1006300001000100010000000000010001000100B4
:1006400000000000000000000000000000000100A9
:100650000100010001000100010001000000000094
:100660000000000001000100010001000100010084
:100670000100010001000100010001000100010072
:100680000100010000000000000001000100010065
:100690000100010001000100010001000100010052
:1006A0000100010001000100010001000000000044
:1006B0000000010001000100010001000100010033
:1006C0000100000000000100010001000100010024
:1006D0000100010000000000000000000100010016
:1006E0000100010001000100010000000000000005
:1006F00000000000000000000000010001000000F8
:1007000000000100010000000000000000000000E7
:1007100000000000000000000000000000000000D9
:1007200001000100010000000000010001000100C3
:1007300000000000000000000000000000000100B8
:1007400001000100010001000100010000000000A3
:100750000000000001000100010001000100010093
:100760000100010001000100010001000100010081
:100770000100010000000000000001000100010074
:100780000100010001000100010001000100010061
:100790000100010001000100010001000000000053
:1007A0000000010001000100010001000100010042
:1007B0000100000000000100010001000100010033
:1007C0000100010000000000000000000100010025
:1007D0000100010001000100010000000000000014
:1007E0000000000000000000000001000100000007
:1007F00000000100010000000000000000000000F7
:1008000000000000000000000000000000000000E8
:1008100001000100010000000000010001000100D2
:1008200000000000000000000000000000000100C7
:1008300001000100010001000100010000000000B2
:1008400000000000010001000100010001000100A2
:100850000100010001000100010001000100010090
:100860000100010000000000000001000100010083
:100870000100010001000100010001000100010070
:100880000100010001000100010001000000000062
:100890000000010001000100010001000100010051
:1008A0000100000000000100010001000100010042
:1008B0000100010000000000000000000100010034
:1008C0000100010001000100010000000000000023
:1008D0000000000000000000000001000100000016
:1008E0000000010001000000000000000000000006
:1008F00000000000000000000000000000000000F8
:1009000001000100010000000000010001000100E1
:1009100000000000000000000000000000000100D6
:1009200001000100010001000100010000000000C1
:1009300000000000010001000100010001000100B1
:10094000010001000100010001000100010001009F
:100950000100010000000000000001000100010092
:10096000010001000100010001000100010001007F
:100970000100010001000100010001000000000071
:100980000000010001000100010001000100010060
:100990000100000000000100010001000100010051
:1009A0000100010000000000000000000100010043
:1009B0000100010001000100010000000000000032
:1009C0000000000000000000000001000100000025
:1009D0000000010001000000000000000000000015
:1009E0000000000000000000000000000000000007
:1009F00001000100010000000000010001000100F1
:100A000000000000000000000000000000000100E5
:100A100001000100010001000100010000000000D0
:100A200000000000010001000100010001000100C0
:100A300001000100010001000100010001000100AE
:100A400001000100000000000000010001000100A1
:100A5000010001000100010001000100010001008E
:100A60000100010001000100010001000000000080
:100A7000000001000100010001000100010001006F
:100A80000100000000000100010001000100010060
:100A90000100010000000000000000000100010052
:100AA0000100010001000100010000000000000041
:100AB0000000000000000000000001000100000034
:100AC0000000010001000000000000000000000024
:100AD0000000000000000000000000000000000016
:100AE0000100010001000000000001000100010000
:100AF00000000000000000000000000000000100F5
:100B000001000100010001000100010000000000DF
:100B100000000000010001000100010001000100CF
:100B200001000100010001000100010001000100BD
:100B300001000100000000000000010001000100B0
:100B4000010001000100010001000100010001009D
:100B5000010001000100010001000100000000008F
:100B6000000001000100010001000100010001007E
:100B7000010000000000010001000100010001006F
:100B80000100010000000000000000000100010061
:100B90000100010001000100010000000000000050
:100BA0000000000000000000000001000100000043
:100BB0000000010001000000000000000000000033
:100BC0000000000000000000000000000000000025
:100BD000010001000100000000000100010001000F
:100BE0000000000000000000000000000000010004
:100BF00001000100010001000100010000000000EF
:100C000000000000010001000100010001000100DE
:100C100001000100010001000100010001000100CC
:100C200001000100000000000000010001000100BF
:100C300001000100010001000100010001000100AC
:100C4000010001000100010001000100000000009E
:100C5000000001000100010001000100010001008D
:100C6000010000000000010001000100010001007E
:100C70000100010000000000000000000100010070
:100C8000010001000100010001000000000000005F
:100C90000000000000000000000001000100000052
:100CA0000000010001000000000000000000000042
:100CB0000000000000000000000000000000000034
:100CC000010001000100000000000100010001001E
:100CD0000000000000000000000000000000010013
:100CE00001000100010001000100010000000000FE
:100CF00000000000010001000100010001000100EE
:100D000001000100010001000100010001000100DB
:100D100001000100000000000000010001000100CE
:100D200001000100010001000100010001000100BB
:100D300001000100010001000100010000000000AD
:100D4000000001000100010001000100010001009C
:100D5000010000000000010001000100010001008D
:100D6000010001000000000000000000010001007F
:100D7000010001000100010001000000000000006E
:100D80000000000000000000000001000100000061
:100D90000000010001000000000000000000000051
:100DA0000000000000000000000000000000000043
:100DB000010001000100000000000100010001002D
:100DC0000000000000000000000000000000010022
:100DD000010001000100010001000100000000000D
:100DE00000000000010001000100010001000100FD
:100DF00001000100010001000100010001000100EB
:100E000001000100000000000000010001000100DD
:100E100001000100010001000100010001000100CA
:100E200001000100010001000100010000000000BC
:100E300000000100010001000100010001000100AB
:100E4000010000000000010001000100010001009C
:100E5000010001000000000000000000010001008E
:100E6000010001000100010001000000000000007D
:100E70000000000000000000000001000100000070
:100E80000000010001000000000000000000000060
:100E90000000000000000000000000000000000052
:100EA000010001000100000000000100010001003C
:100EB0000000000000000000000000000000010031
:100EC000010001000100010001000100000000001C
:100ED000000000000100010001000100010001000C
:100EE00001000100010001000100010001000100FA
:100EF00001000100000000000000010001000100ED
:100F000001000100010001000100010001000100D9
:100F100001000100010001000100010000000000CB
:100F200000000100010001000100010001000100BA
:100F300001000000000001000100010001000100AB
:100F4000010001000000000000000000010001009D
:100F5000010001000100010001000000000000008C
:100F6000000000000000000000000100010000007F
:100F7000000001000100000000000000000000006F
:100F80000000000000000000000000000000000061
:100F9000010001000100000000000100010001004B
:100FA00000000000000000000000000012036B00C1
:100FB0006500790062006F0061007200640000004B
:100FC000160371006D006B006200750069006C0013
:100FD00064006500720000000403090409026D004A
:100FE000040100A0FA090400000103010100092125
:100FF000110100012240000705810308000A0904CD
:1010000001000103010200092111010001224D002C
:101010000705820308000A0904020001030000001A
:101020000921110100012236000705830308000A87
:10103000090403000103000000092111010001223D
:10104000390007058403200001120110010000008F
:1010500008EDFE606001000102000105010906A122
:1010600001050719E029E71500250195087501819B
:10107000020508190129059505750191029501756B
:101080000391010507190029F71500250195F87549
:10109000018102C005010980A10185021601002617
:1010A00003001A81002A8300751095018100C00594
:1010B0000C0901A1018503160100269C021A0100FA
:1010C0002A9C02751095018100C005010902A10149
:1010D0000901A1000509190129051500250195053A
:1010E00075018102950175038101050109300931FE
:1010F0001581257F95027508810609381581257FA0
:10110000950175088106050C0A38021581257F9521
:101110000175088106C0C005010906A1010507196E
:10112000E029E715002501950875018102950175F3
:101130000881010508190129059505750191029598
:1011400001750391010507190029FF150026FF000D
:10115000950675088100C00011241FBECFEFDAE0AC
:10116000DEBFCDBF04B603FE27C0809197029091E9
:101170009802A0919902B0919A028730904BA740B3
:10118000B04BD1F4109297021092980210929902EB
:1011900010929A0214BE84B7877F84BF0FB6F8946A
:1011A000A895809160008861809360001092600033
:1011B0000FBEE0E0F8E3099511E0A0E0B1E0EEE158
:1011C000F0E502C005900D92A234B107D9F722E0F4
:1011D000A2E4B1E001C01D92A739B207E1F70E9475
:1011E00025210C94E1270C94000090E080E0089504
:1011F0000895089581E00895089581E008950C947C
:10120000FA080E941E132FEF84E39CE021508040D7
:101210009040E1F700C000000C94611BEF92FF9238
:101220000F931F93CF93DF938C01FC01E080F1803B
:101230008091A601811140C082818823C1F1C7013C
:101240000E94A318C82F682FC7010E944C18B7012D
:101250008C2F0E94460AEC01B8010E94FF088823E7
:1012600009F44BC0B801CE010E944F0C882309F449
:1012700044C0C531F0E7DF0720F5C23080E7D8076A
:1012800008F04DC0C115E0E7DE0791F1C130D0474D
:10129000E1F181E08093440180934501C801DF9131
:1012A000CF911F910F91FF90EF900C94FD08C70113
:1012B0000E947A18C82FCBCFC7010E94A318B7018C
:1012C000C8CFCC3380E7D80709F49BC0CD33D047D3
:1012D00001F7F8018281882309F4BAC01092450110
:1012E0000E940D1B909343018093420180E296C0BF
:1012F000F801828181110E94010980E0DF91CF9184
:101300001F910F91FF90EF900895F801828188233B
:10131000A1F380915702816080935702EECFF801CC
:101320008281882309F4BACF0E945E1A811102C01B
:101330000E94441A0E947B1A90E090938902809345
:101340008802FE01E350F047809188028160E2311B
:10135000F10538F4ED51F84D0C94912780918802F5
:10136000826080938802809188020E947F1A0E9486
:101370001E13C3CF809188028460F3CF80918802CE
:101380008860EFCF809188028061EBCF80918802E6
:101390008062E7CF809188028064E3CF80918802E9
:1013A0008068DFCF809188028C60DBCF80918802DB
:1013B0008E7FD7CF809188028D7FD3CF8091880296
:1013C0008B7FCFCF80918802877FCBCF809188029F
:1013D0008F7EC7CF809188028F7DC3CF8091880296
:1013E0008F7BBFCF809188028F77BBCF809188029F
:1013F000837FB7CF90918802892F97FB87F9805818
:10140000B0CFF8018281882361F0109244010E94DC
:101410000D1B909343018093420182E00E94831050
:101420006CCF8091440181110FC080914201909155
:1014300043010E94191B883C910530F486E20E940A
:10144000580F86E20E94341082E00E948A1055CF25
:101450008091450181110FC080914201909143011B
:101460000E94191B883C910530F487E20E94580FB6
:1014700087E20E94341080E2E8CF0C949E0C0C941A
:10148000A00C0C94FC080C94410A0895972F70E06E
:1014900024E1929F600D711D1124FB0198E7899F43
:1014A000E00DF11D1124EE0FFF1FE455FF4F859154
:1014B00094910895FC01EE0FFF1FE455F04F8591C4
:1014C000949108950E94460A0E94D30B9C018115B5
:1014D00040E4940708F097C0211580E3380708F02E
:1014E000FAC0203E310508F074C0203C310508F0F8
:1014F000E5C0283A310588F4253A310508F0E2C004
:101500002130310509F477C0C9010497813A91056A
:1015100008F471C030E020E06EC0C901885A91091A
:101520004597C0F7283A310509F4FEC0293A31053C
:1015300009F4FDC02A3A310509F4FCC02B3A310503
:1015400009F4FBC02C3A310509F4FAC02B3B3105F4
:1015500009F4F9C02C3B310509F4F8C02D3A3105E6
:1015600009F4F7C0203B310509F4F6C02E3A3105E5
:1015700009F4F5C02F3A310509F4F4C0213B3105D7
:1015800009F4F3C0223B310509F4F2C0233B3105D5
:1015900009F4F1C0243B310509F4F0C0253B3105C5
:1015A00009F4EFC0263B310509F4EEC0273B3105B5
:1015B00009F4EDC0283B310509F4ECC0293B3105A5
:1015C00009F4EBC02A3B310509F4EAC020E034E419
:1015D00012C0211590E2390780F42F3F310509F040
:1015E00050F4283E310538F0C901805F910930651B
:1015F000409708F08FCFC9010895C9019F700E94DC
:101600005A0A9C01F8CF8115944508F041C0211574
:1016100083E5380708F06AC0211592E5390738F5E7
:10162000211541E5340708F05CC0211580E5380735
:1016300008F454C0C90134E0969587953A95E1F7CE
:101640008370422F46954695437090E2499FA001D2
:101650001124582B822F837021E030E002C0220F2A
:10166000331F8A95E2F7242B352B3C68C4CFC90180
:101670008370992741E050E002C0440F551F8A95BE
:10168000E2F72695269580E2289F90011124EBCF62
:10169000211596E5390748F4922F882721153545FD
:1016A000C8F59C01246F306AA6CFC90190563F70DF
:1016B0008115904108F02ECF30629DCFC901805C2A
:1016C00091099DCF253A310549F1263A310549F571
:1016D00022E830E490CF3327306C8DCF3F70306AF2
:1016E0008ACF322F2227216F306A85CFC9018370BC
:1016F000992741E050E002C0440F551F8A95E2F758
:101700002695269580E2289F90011124242B352BC5
:101710003A6871CF88279F719C01CECF21E830E4D1
:101720006ACF23E830E467CF22EE34E464CF29EEB9
:1017300034E461CF2AEE34E45ECF25EB34E45BCFB2
:1017400026EB34E458CF23EB34E455CF24EB34E4D8
:1017500052CF27EB34E44FCF2CEC34E44CCF2DECBC
:1017600034E449CF23E835E446CF2AE835E443CFD3
:1017700022E935E440CF24E935E43DCF21E236E4E7
:101780003ACF23E236E437CF24E236E434CF25E201
:1017900036E431CF26E236E42ECF27E236E42BCFF3
:1017A0002AE236E428CF803E910581F1C8F48133E6
:1017B000910509F462C048F48932910509F456C0D4
:1017C0008A32910509F460C0089589339105B9F012
:1017D00082389105A1F08533910509F440C0089540
:1017E000863E910561F138F4823E9105B1F0833E69
:1017F0009105E1F00895873E910551F108952091FA
:1018000088022370D9F080EE90E00895209188023C
:1018100020FF14C089E390E008952091880222FF00
:101820000DC024FD09C083EE90E008952091880248
:1018300022FD31C024FF02C090E080E00895209195
:10184000880223FFFBCF24FDF7CF87EE90E00895B9
:101850002091880223FFEECF86EE90E0089520913C
:10186000880225FFEBCF89E290E00895209188025D
:1018700025FFE4CF85E390E008952091880226FFBC
:10188000DDCF8AE290E008952091880226FFD6CF2E
:1018900081E390E0089582EE90E0089508950F931B
:1018A0001F93CF938C01FB018281811106C0C1E09F
:1018B0008C2FCF911F910F910895C0915301C111A9
:1018C00025C00531104799F70E944E0C81E08093A6
:1018D00053010E940D1B909352018093510110926D
:1018E0004601109248011092470110924A0110924D
:1018F000490110924C0110924B0110924E0110922E
:101900004D011092500110924F01D2CF80915101A0
:10191000909152010E94191B883C910540F68091DC
:101920004601E82FF0E0EE0FFF1FE95BFE4F118349
:1019300000838F5F80934601C0E0BACF0C94F80813
:101940000C94F90885B7806885BF85B7806885BF26
:10195000A7E2B1E061E070E08D91E82FE295EF70D1
:10196000F0E041A18F709B0101C0220F8A95EAF738
:10197000922F9095942391A382A1822B82A381E040
:10198000AD32B80749F7A3E1B1E061E070E08D91B5
:10199000E82FE295EF70F0E041A18F709B0101C04C
:1019A000220F8A95EAF7922F9095942391A382A112
:1019B000822B82A381E0A732B80749F7ECE6F1E079
:1019C000A4E5B1E084E891E0119211921192119294
:1019D0001D921D921D921D928E179F07A9F70C94C0
:1019E0003D0A2F923F924F925F926F927F928F9219
:1019F0009F92AF92BF92CF92DF92EF92FF920F939E
:101A00001F93CF93DF93CDB7DEB72B970FB6F89424
:101A1000DEBF0FBECDBF84E5282E81E0382E07E261
:101A200011E01E830D8338862F82C12CD12C7601C4
:101A3000C394AF81B8858D909D90AD90BD90B887CF
:101A4000AF83FD011292129212921292FB87EA87E3
:101A5000AD81BE818D91BE83AD83E82FE295EF709D
:101A6000F0E091A18F7001E010E002C0000F111FA3
:101A70008A95E2F71A830983802F892B81A382A19B
:101A800000950987802382A310EA1A95F1F723E1D4
:101A900031E03C832B8390E080E0AB81BC817D9082
:101AA000BC83AB83272D22952F7030E0D90190960F
:101AB0005C90AA85BB854D915D916D917C91272DA0
:101AC0002F7001E010E002C0000F111F2A95E2F70D
:101AD0009801252109F07AC097018601082E04C0DB
:101AE000000F111F221F331F0A94D2F7280139015A
:101AF0004429552966297729AA85BB854D935D938D
:101B00006D937C93139701968431910531F681A1F1
:101B10001985182311A382A1B9818B2B82A3EA8591
:101B2000FB8580819181A281B38188169906AA06DE
:101B3000BB0649F0F1E0F09384010E940D1B9093E5
:101B40008601809385010F8118850C56114009F09C
:101B500070CF809184018823E9F080918501909174
:101B600086010E94191B0697A8F02CE631E0F101CE
:101B700081919191A191B1911F01F901819391936B
:101B8000A193B1939F01FCE62F16F1E03F0679F790
:101B9000109284010E943F0A81E02B960FB6F894C0
:101BA000DEBF0FBECDBFDF91CF911F910F91FF9090
:101BB000EF90DF90CF90BF90AF909F908F907F90ED
:101BC0006F905F904F903F902F900895412C512C33
:101BD00032018ECFCF93DF9300D000D0CDB7DEB7E8
:101BE00094E0899FF0011124E459FE4F8081918196
:101BF000A281B381BC01CD010F900F900F900F9087
:101C0000DF91CF910895089590938C0180938B017B
:101C10000895E0918B01F0918C01309721F00190B3
:101C2000F081E02D099480E00895E0918B01F0911E
:101C30008C01309721F00280F381E02D0994089502
:101C4000E0918B01F0918C01309721F00480F581B7
:101C5000E02D099408952091890130918A01281777
:101C6000390771F090938A0180938901E0918B018B
:101C7000F0918C01309721F00680F781E02D0994D6
:101C8000089520918701309188012817390771F054
:101C90009093880180938701E0918B01F0918C01F2
:101CA000309721F00084F185E02D0994089508957E
:101CB0000C94570E0E94041B0E94A20C0C94CD1B86
:101CC0004F925F926F927F929F92AF92BF92CF920C
:101CD000DF92EF92FF920F931F93CF93DF9300D089
:101CE00000D00F92CDB7DEB70E94F10C2EE8A22EE5
:101CF00021E0B22E10E000E0902E802F0E94EA0D2D
:101D00006B017C01F50141905190619071905F01F0
:101D10004C145D046E047F0409F475C08091570271
:101D200081FD0E94030E90E080E04C245D246E242F
:101D30007F24B301A201082E04C0769567955795BC
:101D400047950A94D2F740FF59C089839A82412C63
:101D5000512C3201439404C0440C551C661C771C62
:101D60008A95D2F7C420D520E620F72081E0CD283F
:101D7000CE28CF2809F480E08B830E940D1B816060
:101D8000782F9D838C8349815A816B818D810E943C
:101D90002F0F000F111F000F111FF801E257FE4F08
:101DA00080819181A281B38184259525A625B725BF
:101DB00080839183A283B3830E947A1E0E94090EBE
:101DC00090918D018917B1F10E94090E80938D01C8
:101DD0000F900F900F900F900F90DF91CF911F9168
:101DE0000F91FF90EF90DF90CF90BF90AF909F90BA
:101DF0007F906F905F904F900C94430A01968431CE
:101E0000910509F096CF0F5F1F4F0630110509F0BD
:101E100073CF8FEF89838A831B820E940D1B8160A1
:101E2000782F9D838C8349815A816B818D810E949B
:101E30002F0FC2CF0F900F900F900F900F90DF9148
:101E4000CF911F910F91FF90EF90DF90CF90BF90B7
:101E5000AF909F907F906F905F904F900895CF9339
:101E6000DF93CDB7DEB72B970FB6F894DEBF0FBE6A
:101E7000CDBF4F83588769877A878B871E8285E01D
:101E8000FE013796DE01119601900D928A95E1F7D9
:101E900049815A816B817C818D819E812B960FB601
:101EA000F894DEBF0FBECDBFDF91CF910C94A61585
:101EB000882309F4D8C0823871F40E94090E81FD8C
:101EC000D2C089E30E944B190E94151A89E30E942F
:101ED00088190C94151A833859F40E94090E80FD54
:101EE000C2C083E50E944B190E94151A83E5EFCF0B
:101EF000843859F40E94090E82FDB5C087E40E941F
:101F00004B190E94151A87E4E2CF9CEF980F913A83
:101F100018F40E944B19DDCF90E2980F983050F4DE
:101F2000877091E001C0990F8A95EAF7892F0E9486
:101F3000CC19CFCF9BE5980F933070F4853A31F0F0
:101F4000863A39F083E890E00C942B0E81E890E01B
:101F5000FBCF82E890E0F8CF98E5980F953108F034
:101F600082C0883A09F440C0893A09F440C08A3AEC
:101F700009F440C08B3A09F440C08C3A09F440C0DF
:101F80008B3B09F440C08C3B09F440C08D3A09F406
:101F900040C0803B09F440C08E3A09F440C08F3AFB
:101FA00009F440C0813B09F440C0823B09F440C0C1
:101FB000833B09F440C0843B09F440C0853B09F4ED
:101FC00040C0863B09F440C0873B09F440C0883BD1
:101FD00009F440C0893B09F440C08A3B09F440C081
:101FE00090E080E00C94410E82EE90E0FBCF89EE11
:101FF00090E0F8CF8AEE90E0F5CF85EB90E0F2CF5D
:1020000086EB90E0EFCF83EB90E0ECCF84EB90E0B9
:10201000E9CF87EB90E0E6CF8CEC90E0E3CF8DEC5E
:1020200090E0E0CF83E891E0DDCF8AE891E0DACF7D
:1020300082E991E0D7CF84E991E0D4CF81E292E0C8
:10204000D1CF83E292E0CECF84E292E0CBCF85E2A3
:1020500092E0C8CF86E292E0C5CF87E292E0C2CF9D
:102060008AE292E0BFCF0895882309F44BC08238FA
:1020700071F40E94090E81FF45C089E30E944B194B
:102080000E94151A89E30E9488190C94151A833846
:1020900059F40E94090E80FF35C083E50E944B1958
:1020A0000E94151A83E5EFCF843859F40E94090E77
:1020B00082FF28C087E40E944B190E94151A87E40A
:1020C000E2CF9CEF980F913AF0F290E2980F98309F
:1020D00050F4877091E001C0990F8A95EAF7892F33
:1020E0000E94D219D2CF9BE5980F933020F490E054
:1020F00080E00C942B0E885A853120F490E080E02B
:102100000C94410E0895882321F00E94CC190C9460
:10211000151A0895882321F00E94D2190C94151ADB
:1021200008958F929F92AF92BF92DF92EF92FF92AB
:102130000F931F93CF93DF9300D000D00F92CDB7B2
:10214000DEB77C016D837983FC01058102950F70F8
:10215000128111110E94EB190E944419D82E882374
:1021600071F01123A1F08D81805E883080F082E0D3
:102170000E942E190E94441991E0D82ED926E98197
:10218000E295EF70F0E0EB50F84D0C949127D12CD4
:10219000F6CF09810F70F981F07F11F00295007F71
:1021A0001123B1F0002361F08D81805E883018F03A
:1021B0002D81211109C0802F0E94CC190E94151A6F
:1021C0008D810E94580F15C0802F0E94DD19F6CF17
:1021D0008D810E943410002361F08D81805E8830F3
:1021E00018F03D81311129C0802F0E94D2190E9420
:1021F000151ADD2009F4D3C10E94211980FDCFC139
:10220000F70112820E941B190E946417C7010E94E5
:10221000E0120E941B190F900F900F900F900F90DB
:10222000DF91CF911F910F91FF90EF90DF90BF90C2
:10223000AF909F908F900C948617802F0E94E31987
:10224000D6CF49814F70B42E5981507F503219F04A
:10225000B29480EFB8228D81882369F0813029F112
:10226000112369F1002359F0F701858180FFA8CF80
:102270008F70858304C0112361F0011104C08B2D80
:102280000E948310B6CF8B2D0130D1F70E94FF1929
:10229000B0CF011106C00E94021A8B2D0E948A1035
:1022A000A8CF013009F4A5CFF6CF112321F00630D5
:1022B00008F09FCFE4CF053008F09BCFEECF00238E
:1022C00061F38D810E94341094CF89818695869523
:1022D000837069F0813009F08CCF8D819981937082
:1022E000111102C090E080E00E94410E82CF8D81EA
:1022F00099819370111102C090E080E00E942B0E32
:1023000078CF8D81112329F00E94881D0E946F1EB5
:1023100070CF0E94F01DFACF8981837009F05FC0F1
:10232000111167CF2D81229526952770220F220F3C
:102330008D818F7090E0B0E0A0E04C015D01022E35
:1023400004C0880C991CAA1CBB1C0A94D2F7FD81FE
:1023500060E070E0CB01F4FF0FC06FE070E080E060
:1023600090E004C0660F771F881F991F2A95D2F747
:102370006095709580959095298126952695237076
:102380002D832230B1F0233019F19B01AC012829B3
:1023900039294A295B2929833A834B835C833D8110
:1023A00069817A818B819C813130B1F00E94F11674
:1023B00020CF9B01AC01282939294A295B2929838F
:1023C0003A834B835C83CA01B9010E941B1711CF6A
:1023D0000E94F116C501B4010E94C7160ACF869566
:1023E000112311F089818170882309F402CF2D8196
:1023F000229526952770220F220F8D818F7090E0F5
:10240000B0E0A0E04C015D01022E04C0880C991CD4
:10241000AA1CBB1C0A94D2F73D8160E070E0CB019E
:1024200034FF0FC06FE070E080E090E004C0660F02
:10243000771F881F991F2A95D2F760957095809510
:10244000909549814695469543704D834230B1F051
:10245000433019F19B01AC01282939294A295B290C
:1024600029833A834B835C833D8169817A818B81A7
:102470009C813130B1F00E94F717BBCE9B01AC01BB
:10248000282939294A295B2929833A834B835C838C
:10249000CA01B9010E942118ACCE0E94F717C501EC
:1024A000B4010E94CD17A5CE3D81323F09F447C04B
:1024B00080F4303F79F1313FD9F1832F805E803154
:1024C000D0F0112309F456C001117ACE89818F71A1
:1024D00033C04D81433FD1F1443F99F7112309F4B3
:1024E0003FC089818F7189830E94641763E089816D
:1024F0000E9425197ECE5D815F705D8389818F7119
:10250000112321F00E9464178D81BACE0E94861794
:102510008D81C4CE112341F0053008F06ACE898147
:102520008F710E94AB1765CE063008F062CEF7CFF0
:1025300089818F71112339F00E9464175ACE8981E5
:102540008F711123C9F30E94861753CE112329F0EE
:1025500089818F710E944F174CCE0E94451749CE3A
:1025600081E00E942E19023008F443CE82E00E94DE
:102570002E193FCE0111A5CE89818F71E4CF4981FB
:102580004F706D81C7010E94F5080E94401631CE40
:1025900049814F706D81C7010E94450A2ACE0F9074
:1025A0000F900F900F900F90DF91CF911F910F918F
:1025B000FF90EF90DF90BF90AF909F908F90089525
:1025C0000F931F93CF93DF93EC018B819C81892B19
:1025D00029F08881998189238F3F29F4DF91CF9158
:1025E0001F910F910895CE010E940E098823B1F327
:1025F000688179818A810E94F1188C010E944B18B0
:102600000E94BC16B801CE01DF91CF911F910F91AE
:102610000C9491100E94EB190E94FC190E94BE19A3
:102620000E94151A0E94601F0E946F1E90E080E0B9
:102630000E942B0E90E080E00C94410E0E94DA196B
:102640000C940A130E94E518282F892F82958F7009
:10265000903C80F48A30B0F4843020F4823090F4DE
:1026600080E008958630E1F781E0203E88F0213F48
:10267000B9F70EC08C3011F08F3091F793FB88279B
:1026800080F9089581E0203F39F018F4203E40F7AA
:102690000895243F29F7FCCF0895CF93DF9300D00E
:1026A00000D00F92CDB7DEB70F900F900F900F9024
:1026B0000F90DF91CF910895CF93DF9300D000D09A
:1026C00000D0CDB7DEB726960FB6F894DEBF0FBEAA
:1026D000CDBFDF91CF9108951F93CF93DF93E0910A
:1026E000A70116E08091A8018E1304C0DF91CF915D
:1026F0001F910895CE2FD0E01E9FF0011124E755C1
:10270000FE4F4081518162817381848195810E9455
:102710005C13FE013196E770E5CF4091D9015091ED
:10272000DA016091DB017091DC018091DD01909113
:10273000DE010C945C131F93CF93DF938091DE0135
:10274000807FC1F48091DB018823A1F08091A701F3
:10275000C091A8016091D9017091DA014091DC012A
:102760005091DD01D62FD723DA01A095B09516E060
:10277000C81304C0DF91CF911F91089590E04115D7
:10278000510511F0DF3F31F401968770F1CF2A0F28
:102790003B1F17C0189FF001199FF00D1124E7553A
:1027A000FE4F21812713F0CF20812613EDCF228108
:1027B0002111EACF238134812417350740F3241BEC
:1027C000350B283C310500F72091DE012F70206188
:1027D0002093DE0126E0289FF001299FF00D1124AF
:1027E000E255FE4F80818F708061808389ED91E09A
:1027F0000E94E012DF91CF911F910C946C139F9275
:10280000AF92BF92CF92DF92EF92FF920F931F93FE
:10281000CF93DF93CDB7DEB72B970FB6F894DEBF1B
:102820000FBECDBF8C0185E0F801DE011796019047
:102830000D928A95E1F7D8014C9111965C91119710
:102840001296EC9012978091DC019091DD01009737
:1028500009F46BC12091D9013091DA01632F622311
:102860006F3F09F462C11396CD90DC909090DB012C
:10287000992009F4F8C0C816D90608F43FC0F6013B
:10288000E81BF90BCF01FF24F394883C910508F075
:10289000F12C89EDA82E81E0B82E8091DE01982FD1
:1028A000907FFF2009F4B7C0911180C0FE2C351332
:1028B0002AC0241328C0E11026C08F708061809345
:1028C000DE010E948D13C5010E94E0128091DE019D
:1028D000D80115968C938F2D2B960FB6F894DEBFEA
:1028E0000FBECDBFDF91CF911F910F91FF90EF9061
:1028F000DF90CF90BF90AF909F9008958095909576
:102900008C0D9D1DC0CFCD2829F0842F85238F3FAE
:1029100009F019C180E0B82FB170DB2EE091A7015A
:102920002091A80136E080FD1CC0EE20A1F280912C
:10293000DE0181608093DE01F12CCDCF8E2F90E0FF
:102940003E9FF0011124E755FE4F6181651306C0DB
:102950006081641303C062816E11E7CFFC01319680
:10296000E770E213EBCF4F8358878F8198850E94E1
:10297000E518292F22952F70903260F0225F2F707A
:10298000223078F49F7051F0F8019581907F31F4F6
:10299000D12C0AC09F7011F08823D1F3805E88305B
:1029A000B8F3C8010E94E012FD2C95CF351306C084
:1029B000241304C0D801EE2009F47BC04F8358874C
:1029C0008F8198850E942213882309F4B8C0EE20D5
:1029D00009F4B5C08091DE01803270F02091D901F8
:1029E0003091DA013A8329831B82DD82CC828E8387
:1029F000CE0101960E94E01286E0F801A9EDB1E057
:102A000001900D928A95E1F70E949B130E948D130D
:102A1000FF24F39460CF911113C07C2DDB86CA860E
:102A20006E2D8B850E944D1389ED91E00E94E0127E
:102A300086E0F50111928A95E9F70E948D134BCF3C
:102A40003513BCCF2413BACFE110B8CFD8011596F7
:102A50008C93C8010E94E01286E0F50111928A95DC
:102A6000E9F7F92C38CFC816D90688F1B601681BEA
:102A7000790BCB01F12C883C910508F047C0FE2C66
:102A8000EE2009F45CC0351330C024132EC08091B1
:102A9000DE0180FD21C0982F907FF1F0D8011596BE
:102AA0008C931597903F39F0982F907F905F8F709F
:102AB000892B15968C93C8010E94E01286E0F801DC
:102AC000A9EDB1E001900D928A95E1F7B6CF80951E
:102AD00090958C0D9D1DCECF86E0F801A9EDB1E05B
:102AE00001900D928A95E1F7F6CE4F8358878F813A
:102AF00098850E94221381117FCF8091DE01816031
:102B00008093DE01C8010E94E012E5CE7C2DDB86B9
:102B1000CA866E2D8B850E944D1386E0E9EDF1E0AB
:102B2000DF011D928A95E9F788CFEE2041F04F83AF
:102B300058878F8198850E94221381115DCFC8012B
:102B40000E94E01265CF81E08E25E5CE1F93CF93E2
:102B5000DF93CDB7DEB72C970FB6F894DEBF0FBE6C
:102B6000CDBF4F83588769877A878B879C87CE0133
:102B700007960E94FF13882369F08A859B85892B1D
:102B800039F04F815885842F85238F3F09F071C01C
:102B900016E05FC086E0FE013796DE0111960190D7
:102BA0000D928A95E1F78A859B85892B89F3888523
:102BB0009F8189238F3F61F32091A80130E0C901F3
:102BC0000196877099274091A7014817190671F45B
:102BD0000E941E131092A8011092A70186E0E9ED51
:102BE000F1E0DF011D928A95E9F7D2CF96E0929F3E
:102BF000D001939FB00D1124A755BE4FFE01319611
:102C000001900D929A95E1F78093A8010E946C13B0
:102C1000BFCF819FC001112487559E4F0E94FF1393
:102C20008823E9F0E091A7011E9FF0011124E755E8
:102C3000FE4F4081518162817381848195810E9420
:102C40005C138091A70190E001968770992780938B
:102C5000A7018091A7019091A8018913DACF2C9642
:102C60000FB6F894DEBF0FBECDBFDF91CF911F919D
:102C7000089569857A858B859C850E945C1388CF31
:102C8000EF92FF920F931F93CF93DF938C01892BC9
:102C900089F0F12CEE24E394E8012196F801849167
:102CA000843709F457C0A0F4823009F43EC048F4D8
:102CB0008130D1F0DF91CF911F910F91FF90EF9074
:102CC00008959CEF980F9037A8F70E94580F0AC0FC
:102CD000853709F44CC09CE7980F903758F78F77E9
:102CE0000E9434108E0116C00E5F1F4FFE018491AA
:102CF00090E2980F983060F48770FE2D01C0FF0FAE
:102D00008A95EAF78F2F0E94EE190E94151A02C0C9
:102D10000E94580F8F2D815008F4BECFEFE9FFE0DD
:102D20003197F1F700C00000F6CF0E5F1F4FFE0194
:102D3000849190E2980F983050F48770FE2D01C076
:102D4000FF0F8A95EAF78F2F0E94F419DECF0E94B9
:102D50003410E0CF0E5F1F4FFE01C491C150D0F27E
:102D60008FE99FE00197F1F700C00000F7CF0E5FF9
:102D70001F4FFE01F490CECF089560932E02709302
:102D80002F0280933002909331020C940A13CF9358
:102D9000DF9300D000D0CDB7DEB769837A838B8311
:102DA0009C8380912E0290912F02A0913002B091CD
:102DB000310229813A814B815C81822B932BA42B98
:102DC000B52B80932E0290932F02A0933002B093E4
:102DD00031020F900F900F900F90DF91CF910C94D4
:102DE0000A13CF93DF9300D000D0CDB7DEB769834D
:102DF0007A838B839C8380912E0290912F02A091E5
:102E00003002B091310229813A814B815C81822369
:102E10009323A423B52380932E0290932F02A09393
:102E20003002B09331020F900F900F900F90DF910E
:102E3000CF910C940A13CF93DF9300D000D0CDB77D
:102E4000DEB769837A838B839C8380912E02909175
:102E50002F02A0913002B091310229813A814B8139
:102E60005C8182279327A427B52780932E02909315
:102E70002F02A0933002B09331020F900F900F9069
:102E80000F90DF91CF910C940A1310922A021092A6
:102E90002B0210922C0210922D020C940A1341E086
:102EA00050E060E070E004C0440F551F661F771FBC
:102EB0008A95D2F740932A0250932B0260932C02FA
:102EC00070932D020C940A13282F81E090E0A0E06B
:102ED000B0E004C0880F991FAA1FBB1F2A95D2F724
:102EE00040912A0250912B0260912C0270912D0288
:102EF000842B952BA62BB72B80932A0290932B0221
:102F0000A0932C02B0932D020C940A1341E050E0E0
:102F100060E070E004C0440F551F661F771F8A955C
:102F2000D2F7409550956095709580912A029091C6
:102F30002B02A0912C02B0912D0284239523A6236D
:102F4000B72380932A0290932B02A0932C02B09374
:102F50002D020C940A13282F81E090E0A0E0B0E04D
:102F600004C0880F991FAA1FBB1F2A95D2F7409152
:102F70002A0250912B0260912C0270912D0284271D
:102F80009527A627B72780932A0290932B02A09318
:102F90002C02B0932D020C940A13CF93DF9300D030
:102FA00000D0CDB7DEB769837A838B839C83809111
:102FB0002A0290912B02A0912C02B0912D0229811E
:102FC0003A814B815C81822B932BA42BB52B809370
:102FD0002A0290932B02A0932C02B0932D020F9003
:102FE0000F900F900F90DF91CF910C940A13CF9315
:102FF000DF9300D000D0CDB7DEB769837A838B83AF
:103000009C8380912A0290912B02A0912C02B09176
:103010002D0229813A814B815C8182239323A42351
:10302000B52380932A0290932B02A0932C02B09395
:103030002D020F900F900F900F90DF91CF910C9475
:103040000A13CF93DF9300D000D0CDB7DEB76983EA
:103050007A838B839C8380912A0290912B02A0918A
:103060002C02B0912D0229813A814B815C8182270B
:103070009327A427B52780932A0290932B02A0932D
:103080002C02B0932D020F900F900F900F90DF91B4
:10309000CF910C940A130895E82F24E1929FE00D3C
:1030A00011248E2F877041E001C0440F8A95EAF702
:1030B000E695E695E69585E0E89FF0011124E1525A
:1030C000FE4F30E020E070E05191DF011197CB011D
:1030D000022E02C0969587950A94E2F78170819539
:1030E0008527842385278C932F5F3F4F253031051B
:1030F00059F70895E82F24E1929FE00D11249E2FA7
:103100009770E695E695E69585E0E89FF001112435
:10311000E152FE4F50E040E080E0219130E0092E86
:1031200002C0369527950A94E2F721703327042EC2
:1031300001C0220F0A94EAF7822B4F5F5F4F4530A0
:10314000510559F70895BF92CF92DF92EF92FF9207
:103150000F931F93CF93DF938C01C0902A02D090DE
:103160002B02E0902C02F0902D0280912E02909183
:103170002F02A0913002B0913102C82AD92AEA2A3E
:10318000FB2ACFE1D0E0BC2ED701C6010C2E04C033
:10319000B695A795979587950A94D2F780FD0EC0AE
:1031A000219788F7B12C8B2DDF91CF911F910F9133
:1031B000FF90EF90DF90CF90BF900895B8018C2FD3
:1031C0000E94620A019761F3EECFCF93DF93D82F6D
:1031D000C92F0E94A3186D2F7C2FDF91CF910C94E3
:1031E000620A1F93CF93DF93162FD72F9091A601DA
:1031F000992339F0862F972FDF91CF911F910C944F
:10320000E518882391F0862F972F0E94A318C82FC6
:10321000682F812F9D2F0E944C18612F7D2F8C2F9E
:10322000DF91CF911F910C94620A862F972F0E94F5
:103230007A18C82FF2CF80913202859585958595B1
:103240000895809132028770089598E0899F9001D7
:103250001124622B609332020C9464179091320215
:103260008095892380933202282F277061F4282FBC
:10327000082E000C330B9217130629F085958595BF
:1032800085950C948617089590913202977081E08D
:1032900009F480E00895909112019923E1F0909152
:1032A000880297FF18C0E82FE695E695E695EF317E
:1032B00039F12091000130910101E20FF32FF11D4E
:1032C000877021E030E001C0220F8A95EAF7818102
:1032D000822B818308952091000130910101F90131
:1032E00032969FEF40E05191851751F09F3F19F4BE
:1032F000511101C0942F4F5F4E31A9F79F3F09F440
:103300000895290F311D97FD3A95F901828308959B
:1033100090911201992301F19091880297FF1CC0AE
:10332000E82FE695E695E695EF3139F12091000119
:1033300030910101E20FF32FF11D877021E030E0A1
:10334000A90102C0440F551F8A95E2F7CA01809572
:103350009181892381830895209100013091010199
:10336000F9013296205E3F4F9191891303C0DF012E
:1033700011971C92E217F307B9F7089581E090E0E6
:10338000E0910001F0910101E80FF91F1082019610
:1033900080329105A9F7089590915602982B909349
:1033A00056020895982F9095809156028923809314
:1033B0005602089510925602089590915502982B46
:1033C000909355020895982F9095809155028923E6
:1033D00080935502089510925502089590915402D9
:1033E000982B909354020895982F909580915402B1
:1033F0008923809354020895109254020895809373
:103400003302089510923302089520910001309103
:103410000101F9013196205E3F4F80E091919111B9
:103420008F5FE217F307D1F70895E0910001F09163
:103430000101809156028083E0910001F091010129
:10344000808190915502892B8083E0910001F09159
:103450000101808190915402892B808390913302E5
:10346000992361F0E0910001F09101018081892BA5
:1034700080830E94051A811110923302809100010D
:10348000909101010C94150E6DEE7EEF90E080E0BE
:103490000E94CB2760E082E090E00E94B92760E0C4
:1034A00083E090E00E94B92760E084E090E00E9411
:1034B000B92760E085E090E00C94B92790E080E0C7
:1034C0000E94B3279C0181E02D3E3E4F09F080E031
:1034D000089582E090E00C94AB27682F82E090E0A2
:1034E0000C94B92783E090E00C94AB27682F83E01D
:1034F00090E00C94B92784E090E00C94AB27682FFF
:1035000084E090E00C94B92780918E02843039F1E8
:103510001092580288E190E020E40FB6F894A89544
:10352000809360000FBE2093600080E00E94430AF9
:1035300083B7817F846083BF83B7816083BF7894C2
:10354000889583B78E7F83BF0FB6F894A895809136
:103550006000886180936000109260000FBE089543
:1035600008950895CF93DF9300D000D00F92CDB788
:10357000DEB70E94B01A0E94F10C0E94B11A1D829F
:103580008D810E94EA0D672B682B692B71F48D8168
:103590008F5F8D838630A1F780E00F900F900F90A2
:1035A0000F900F90DF91CF91089581E0F6CF0E94A8
:1035B0001E130E94090E0C94430A1F921FB61F92FD
:1035C00011248F939F93AF93BF93809158028111E1
:1035D00013C08091840290918502A0918602B091DF
:1035E00087024196A11DB11D8093840290938502AC
:1035F000A0938602B0938702BF91AF919F918F9164
:103600001F901FBE1F90189582E084BD93E095BD6A
:103610009AEF97BD80936E0008952FB7F89480912C
:10362000840290918502A0918602B09187022FBFFB
:103630000895CF92DF92EF92FF929C014FB7F894DA
:103640008091840290918502A0918602B0918702B8
:103650004FBF6C017D01EE24FF24A90170E060E002
:10366000C416D506E606F70638F0821B930BFF90CA
:10367000EF90DF90CF9008950197F7CF1F921FB67C
:103680001F9211248F939F93AF93BF9380918402D5
:1036900090918502A0918602B09187020196A11DAA
:1036A000B11D8093840290938502A0938602B0930B
:1036B0008702BF91AF919F918F911F901FBE1F9066
:1036C00018950E945423F8942FEF87EA91E6215031
:1036D00080409040E1F700C0000087E090EBDC0103
:1036E0008093970290939802A0939902B0939A02C4
:1036F00088E19CE00FB6F894A895809360000FBE17
:1037000090936000FFCFAF92BF92CF92DF92EF9283
:10371000FF920F931F93CF93C0E0A82EB12C8C2F54
:103720000E94EA0D6B017C0110E000E0D701C601A8
:10373000002E04C0B695A795979587950A94D2F761
:1037400080FF13C0602F7C2F80E00E94460AA816DD
:10375000B90659F481E0CF911F910F91FF90EF903E
:10376000DF90CF90BF90AF9008950F5F1F4F04314F
:103770001105E1F6CF5FC63091F680E0ECCFCF9334
:10378000C82F8CE20E94831B882321F08C2FCF91BD
:103790000C94831B80E0CF910895CF93DF9300D0EA
:1037A00000D0CDB7DEB70E945E1A811102C00E9420
:1037B000441A95E6998308C00E94F10C8FE39CE9B6
:1037C0000197F1F700C00000A981A150A983A111C0
:1037D000F3CF89E20E94BF1B811110C18AE20E94CF
:1037E000BF1B81110E94441A85E00E94BF1B8111FA
:1037F0000E94611B0E94691A8093570287E00E9411
:10380000BF1B882371F08BE10E94BF1B882309F442
:10381000D1C090915702892F8D7F91FF8260809354
:103820005702809157020E946D1A0E947B1A90E005
:10383000909389028093880280EE0E94BF1B8823A8
:1038400041F090918802892F8E7F90FF8160809354
:10385000880289E30E94BF1B882341F0909188026F
:10386000892F8D7F91FF82608093880282EE0E9473
:10387000BF1B882341F090918802892F8B7F92FF94
:1038800084608093880286EE0E94BF1B882341F0EB
:1038900090918802892F877F93FF886080938802A8
:1038A00083EE0E94BF1B882341F090918802892FEC
:1038B0008F7E94FF80618093880285E30E94BF1B06
:1038C000882341F090918802892F8F7D95FF806237
:1038D0008093880281E30E94BF1B882341F090916E
:1038E0008802892F8F7B96FF80648093880281E114
:1038F0000E94BF1B882341F090918802892F97FB7B
:1039000087F9805880938802809188020E947F1AEC
:1039100087E20E94BF1B89838EE10E94BF1B882320
:1039200019F0B981B260B9838FE10E94BF1B88236F
:1039300019F029812460298380E20E94BF1B88231B
:1039400019F039813860398381E20E94BF1B8823D6
:1039500019F049814061498382E20E94BF1B88239C
:1039600019F059815062598383E20E94BF1B88235A
:1039700019F089818064898384E20E94BF1B8823B7
:10398000B1F199819068998389810E94761A398171
:10399000232F30E050E040E029833A834B835C835F
:1039A000CA01B9010F900F900F900F90DF91CF9146
:1039B0000C94BD168EE00E94BF1B882339F09091B5
:1039C0005702892F8B7F92FF846029CF80E10E946C
:1039D000BF1B90915702882329F0892F877F93FF7F
:1039E00088601DCF892F8E7F90FF816018CFA981BD
:1039F000A111CACF0E94721A282FCBCF0F900F901F
:103A00000F900F90DF91CF91089580915B0280FF1E
:103A100012C06091050185E0689FB0011124759581
:103A200067957595679560387105A8F561157105FD
:103A3000A1F1862F089581FF09C06091050185E0FD
:103A4000689FB001112475956795EDCF60910501D0
:103A500082FD0AC080915C028823D1F0909104011C
:103A600060910501891728F085E0689FB001112455
:103A7000DACF869FB001112485E0869F9001879F51
:103A8000300D1124692F70E0C9010E947D27CBCF32
:103A900065E070E0CECF8FE7089581E008958091D2
:103AA0005B0280FF0CC06091030170E07595679523
:103AB000759567956115710549F1862F089581FF08
:103AC00006C06091030170E075956795F3CF609132
:103AD000030182FD0BC090915C029923A1F06091DB
:103AE000020180910301961738F0682F70E060386A
:103AF000710500F38FE70895899FC001112470E0DC
:103B00000E947D27F4CF61E070E0D7CF81E0089577
:103B1000803F31F40E94051D819580935F020895D6
:103B2000813F19F40E94051DF8CF823F31F40E94B5
:103B3000051D819580935E020895833F19F40E94CC
:103B4000051DF8CF893F29F40E944F1D8093600224
:103B500008958A3F21F40E944F1D8195F7CF8B3F36
:103B600031F40E944F1D81958093610208958C3F2E
:103B700019F40E944F1DF8CF843F31F480915D020B
:103B8000816080935D020895853F21F480915D02FC
:103B90008260F7CF863F21F480915D028460F1CF8F
:103BA000873F21F480915D028860EBCF883F21F44C
:103BB00080915D028061E5CF8D3F31F480915B02A1
:103BC000816080935B0208958E3F21F480915B02B7
:103BD0008260F7CF8F3FB9F780915B028460F1CFAD
:103BE00090915E02803F41F480915F0287FD1092C8
:103BF0005F02992371F00895813F29F480915F025B
:103C00001816ACF3F6CF823F81F497FFF2CF1092F3
:103C10005E0280915F0290916002892B9091610217
:103C2000892B49F710925C020895833F19F4191605
:103C300074F3DFCF893F39F4809160021816CCF617
:103C400010926002D6CF8A3F29F48091600287FFEC
:103C5000D0CFF6CF8B3F39F48091610287FFC9CF77
:103C600010926102C6CF8C3F29F480916102181630
:103C7000BCF3BFCF843F31F480915D028E7F80938F
:103C80005D02B7CF853F21F480915D028D7FF7CF34
:103C9000863F21F480915D028B7FF1CF873F21F435
:103CA00080915D02877FEBCF883F21F480915D0298
:103CB0008F7EE5CF8D3F31F480915B028E7F8093C4
:103CC0005B0297CF8E3F21F480915B028D7FF7CF0F
:103CD0008F3F09F08ECF80915B028B7FF0CF8DE517
:103CE00092E00E94200E0E940D1B90935A02809336
:103CF000590208951F93CF93DF9300D000D000D0D6
:103D0000CDB7DEB78091590290915A020E94191BDB
:103D1000AC0180915C022091060130E0811106C067
:103D2000209107019AE0299F90011124421753071F
:103D300088F020915E02A0915F02A9831091600239
:103D4000B0916102BE8321110FC09A2F912B9B2B42
:103D500009F0B2C026960FB6F894DEBF0FBECDBFF5
:103D6000DF91CF911F9108958F3F19F08F5F80935E
:103D70005C02121624F40E94051D80935E0280915D
:103D80005E0287FF05C00E94051D819580935E023B
:103D90002981121624F40E94051D80935F028091F0
:103DA0005F0287FF05C00E94051D819580935F0219
:103DB00080915E02882309F455C030915F023D83F3
:103DC000332309F44FC0282F880F330B440B550BB6
:103DD00029833A834B835C83CA01B9010E948426FC
:103DE00023E333E343E35FE369837A838B839C8339
:103DF00069817A818B819C810E94E82669837A831C
:103E00008B839C8369817A818B819C810E944C2663
:103E100060935E028D81082E000C990BAA0BBB0BE0
:103E200089839A83AB83BC83BC01CD010E94842625
:103E300023E333E343E35FE369837A838B839C83E8
:103E400069817A818B819C810E94E82669837A83CB
:103E50008B839C8369817A818B819C810E944C2613
:103E600060935F02111624F40E944F1D809360023C
:103E70008091600287FF05C00E944F1D819580934D
:103E800060029E81191624F40E944F1D80936102E6
:103E90008091610287FF05C00E944F1D819580932C
:103EA000610226960FB6F894DEBF0FBECDBFDF913C
:103EB000CF911F910C946F1E8F3F09F057CF68CFA1
:103EC00085E0EDE5F2E0DF011D928A95E9F71092B9
:103ED0005C0210925B020895809182020895CF9354
:103EE000DF9300D00F92CDB7DEB720918E02243041
:103EF00019F523E029838A839B832093E9008FEFC0
:103F00009091E800815095FD06C095ED9A95F1F7E6
:103F100000008111F5CF8091E80085FF0DC050E0D1
:103F200040E063E070E0CE0101960E94CC218091D8
:103F3000E8008E778093E8000F900F900F90DF914C
:103F4000CF910895CF93DF9300D00F92CDB7DEB716
:103F50009C0180918E02843031F582E08983205863
:103F600031093B832A8383E08093E9008FEF9091AE
:103F7000E800815095FD06C095ED9A95F1F7000097
:103F80008111F5CF8091E80085FF0DC050E040E041
:103F900063E070E0CE0101960E94CC218091E800A0
:103FA0008E778093E8000F900F900F90DF91CF9164
:103FB000089520918E022430F1F422E02093E9004C
:103FC0002FEF3091E800215035FD06C035ED3A95D0
:103FD000F1F700002111F5CF2091E80025FF0BC07B
:103FE00050E040E065E070E00E94CC218091E80064
:103FF0008E778093E8000895CF93DF93D82FC92F51
:1040000080918E028430F1F4909112019923E9F0AD
:104010009091880297FF19C08093E9008FEF9091EB
:10402000E800815095FD06C095E19A95F1F70000F2
:104030008111F5CF8091E80050E040E060E270E04F
:1040400085FD1AC0DF91CF91089581E08093E9004A
:104050008FEF9091E800815095FD06C095ED9A95FF
:10406000F1F700008111F5CF8091E80085FFEACFDC
:1040700050E040E068E070E08D2F9C2F0E94CC2142
:104080008091E8008E778093E80080E2ED2FFC2F8E
:10409000A2E6B2E001900D928A95E1F7D3CF80912C
:1040A0008D02811109C00E9454230E94B123809186
:1040B000E20084608093E200089510928D020895DA
:1040C000089508950C94D71A42E061EC81E00E94B3
:1040D000D02242E061EC82E00E94D02242E061EC1A
:1040E00083E00E94D02242E261EC84E00C94D02272
:1040F00080919002893089F148F4823009F494C0AB
:10410000833009F44FC0813041F008958A3009F4BA
:104110007BC08B3009F461C0089580918F02813A91
:1041200009F03FC08091E800877F8093E80080918C
:10413000930290919402892B61F460E282E692E00E
:1041400070E00E941B228091E8008B778093E8004A
:10415000089560E090E080E0F3CF80918F0281329B
:1041600001F58091930290919402009711F00397CA
:10417000C1F48091E800877F8093E8008091E80097
:1041800082FF0BC08091F100809382028091E80051
:104190008B778093E8000C94042380918E02811128
:1041A000EDCF089580918F02813AD9F780919302E3
:1041B00090919402892BA9F78091E800877F8093E2
:1041C000E8008091E80080FFFCCF8091120180938D
:1041D000F1008091E8008E77DCCF80918F028132F0
:1041E00001F78091930290919402892BD1F68091EE
:1041F000E800877F8093E8000E9404238091910269
:10420000809312010C941E1380918F02813249F623
:104210008091E800877F8093E8000E9404238091CA
:10422000920280938302089580918F02813A09F06F
:10423000B8CF8091E800877F8093E8008091E80004
:1042400080FFFCCF80918302C2CF84B7877F84BF79
:104250000FB6F894A8958091600088618093600003
:10426000109260000FBE80E88093610010926100A0
:104270000E94580E0E9454230E94B1238091E200B4
:1042800084608093E20078940E9431260E945A0E46
:1042900088E091E00E94040E80918E02853019F032
:1042A0000E94600EF9CF0E94841A80918C028823AC
:1042B00099F30E94B21A882379F30E94B621ECCFB9
:1042C0009C01DA01892F992783309105C1F068F4A8
:1042D0008130910509F445C0029761F48DE690E0C4
:1042E0002CED3FE02D933C93089581329105E1F050
:1042F000829739F190E080E030E020E0F3CFC9010F
:104300009927213059F08230910559F0E8EDFFE00E
:10431000892B81F7849190E09F01E4CFE0ECFFE0EE
:10432000F9CFECEAFFE0F6CF643020F7E62FF0E0BB
:10433000EE0FFF1FE75CFE4F2081318189E090E0A6
:10434000D1CF6430B8F670E0FB01EE0FFF1FEF5CD9
:10435000FE4F20813181635D7E4FFB01808190E0C3
:10436000C1CF82E190E029E430E1BCCF80E189BD9A
:1043700082E189BD09B400FEFDCF8091D8008F7D18
:104380008093D8008091E00082608093E00080916B
:10439000E00081FDFCCF0895AF92BF92CF92DF92F3
:1043A000FF920F931F93CF93DF936C01EB018A0170
:1043B0000E942323F82E811123C00115110539F025
:1043C000F80180819181C81BD90BC80ED91EB12C70
:1043D000A12C2097A9F08091E80085FD22C0809152
:1043E000E8008E778093E80001151105A1F0F8012F
:1043F00080819181A80EB91EB182A08285E0F82E3D
:104400008F2DDF91CF911F910F91FF90DF90CF9073
:10441000BF90AF9008950E9423238823D1F2F82EF5
:10442000EFCFF60181916F018093F1002197FFEFAB
:10443000AF1ABF0ACECFFC01CB012091950230917B
:1044400096022617370790F0009729F42091E8008C
:104450002E772093E80040E0009751F4411108C006
:104460008091E80082FF31C080E00895C901F3CF58
:1044700020918E022223A9F12530A9F12091E80094
:1044800023FD2DC02091E80022FDEACF2091E80015
:1044900020FFE2CF3091F3002091F200009719F055
:1044A0002830310558F041E02830310509F040E06E
:1044B0002091E8002E772093E800CECF41914093E1
:1044C000F10001972F5F3F4FE9CF80918E02882343
:1044D00041F0853041F08091E80083FFC1CF81E059
:1044E000089582E0089583E00895FC01CB012091B6
:1044F0009502309196022617370790F0009729F41D
:104500002091E8002E772093E80040E0009751F4D6
:10451000411108C08091E80082FF32C080E0089518
:10452000C901F3CF20918E022223B1F12530B1F1E0
:104530002091E80023FD2EC02091E80022FDEACF63
:104540002091E80020FFE2CF3091F3002091F200AB
:10455000009719F02830310558F041E02830310536
:1045600009F040E02091E8002E772093E800CECFBC
:1045700044914093F100319601972F5F3F4FE8CF70
:1045800080918E02882341F0853041F08091E800CF
:1045900083FFC0CF81E0089582E0089583E008950D
:1045A000982F973028F08F708093E90081E008956C
:1045B0009093E900242F762F50E0981731F07091F6
:1045C000EC002091ED005091F00021FD02C09F5FB2
:1045D000E8CF3091EB003E7F3093EB003091ED005F
:1045E0003D7F3093ED003091EB0031603093EB0074
:1045F0007093EC002093ED005093F0002091EE00BA
:1046000027FDE5CF80E0089580918F0287FF13C0DA
:104610008091E80082FF06C08091E8008B7780934C
:10462000E80004C080918E028111F2CF089580913C
:104630008E028823D9F38091E80080FFF8CF809123
:10464000E8008E77ECCF2091E4003091E50095E60C
:10465000A9012091EC00822F817020FF06C080917B
:10466000E80080FF06C080E008952091E80022FD68
:104670001AC080918E02882389F0853089F080915C
:10468000EB0085FD0FC02091E4003091E50042175A
:104690005307F9F29150E1F684E0089582E008951D
:1046A00083E0089581E008950E94C2230E94CA23F6
:1046B000E0EEF0E0808181608083E8EDF0E08081D1
:1046C0008F77808319BCA7EDB0E08C918E7F8C939F
:1046D00080818F7E808310928D0208950F931F93A7
:1046E000CF93DF930E94C2230E94CA23C8EDD0E07B
:1046F00088818F77888388818068888388818F7D8F
:10470000888319BC10928E0210928A0210928C0239
:1047100010928B0200EE10E0F80180818B7F808385
:1047200088818160888342E060E080E00E94D0223E
:10473000E1EEF0E080818E7F8083E2EEF0E0808128
:1047400081608083808188608083F80180818E7F92
:104750008083888180618883DF91CF911F910F9141
:104760000895E8EDF0E080818F7E8083E7EDF0E052
:1047700080818160808384E082BF81E080938D02AC
:104780000C946E23E8EDF0E080818E7F80831092A0
:10479000E20008951092DA001092E10008951F924D
:1047A0000F920FB60F9211242F933F934F935F9365
:1047B0006F937F938F939F93AF93BF93EF93FF93E9
:1047C0008091E10082FF0BC08091E20082FF07C070
:1047D0008091E1008B7F8093E1000E9430268091E0
:1047E000DA0080FF19C08091D80080FF15C0809149
:1047F000DA008E7F8093DA008091D90080FF94C028
:1048000080E189BD82E189BD09B400FEFDCF81E070
:1048100080938E020E944F208091E10080FF19C09A
:104820008091E20080FF15C08091E2008E7F80932E
:10483000E2008091E20080618093E2008091D800E4
:1048400080628093D80019BC85E080938E020E941C
:1048500061208091E10084FF29C08091E20084FF03
:1048600025C080E189BD82E189BD09B400FEFDCF8C
:104870008091D8008F7D8093D8008091E1008F7E59
:104880008093E1008091E2008F7E8093E20080912E
:10489000E20081608093E20080918A02882309F41B
:1048A00049C084E080938E020E9462208091E100E2
:1048B00083FF29C08091E20083FF25C08091E10041
:1048C000877F8093E10082E080938E0210928A02BB
:1048D0008091E1008E7F8093E1008091E2008E7FE5
:1048E0008093E2008091E20080618093E20042E0E8
:1048F00060E080E00E94D0228091F0008860809388
:10490000F0000E946020FF91EF91BF91AF919F91C5
:104910008F917F916F915F914F913F912F910F9068
:104920000FBE0F901F90189519BC10928E020E9416
:104930005D2072CF8091E30087FD02C081E0B2CF9D
:1049400083E0B0CF1F920F920FB60F9211242F93D6
:104950003F934F935F936F937F938F939F93AF9307
:10496000BF93CF93DF93EF93FF93D091E900DF7074
:104970008091EC00C82FC17080FDC0E81092E90062
:104980008091F000877F8093F00078940E94E62465
:104990001092E9008091F00088608093F000CD2BA8
:1049A000CF70C093E900FF91EF91DF91CF91BF915C
:1049B000AF919F918F917F916F915F914F913F91B7
:1049C0002F910F900FBE0F901F9018951F93CF93AC
:1049D000DF93CDB7DEB7AA970FB6F894DEBF0FBE50
:1049E000CDBF8FE892E0FC0101962091F100208379
:1049F00022E087399207B9F70E9478208091E80079
:104A000083FF16C180918F02909190029A3008F036
:104A10000FC1E92FF0E0EB5FF74D0C949127803840
:104A200081F0823809F004C1809193028F708093E5
:104A3000E9008091EB0085FB882780F91092E9005E
:104A400006C080918B0290918C02911182609091AE
:104A5000E800977F9093E8008093F1001092F100B6
:104A60008091E8008E77E0C0882309F4CEC08230C0
:104A700009F0DEC0809191028111D1C08091930232
:104A80008F7009F4D5C08093E9002091EB0020FFDE
:104A9000C6C0933031F48091EB0080628093EB00CC
:104AA000BEC09091EB0090619093EB0021E030E06C
:104AB00001C0220F8A95EAF72093EA001092EA00DB
:104AC0008091EB008860EACF8111B2C01091910211
:104AD0001F778091E3008078812B8093E3008091A1
:104AE000E800877F8093E8000E9404238091E8001B
:104AF00080FFFCCF8091E30080688093E30082E038
:104B0000111183E080938E0293C08058823008F0A8
:104B10008FC080919102909192028C3D23E0920788
:104B2000A1F583E08A838AE289834FB7F894DE0196
:104B3000139620E03EE051E2E32FF0E0509357005F
:104B4000E49120FF03C0E295EF703F5FEF708E2F7E
:104B500090E0EA30C0F0C7968D939D932F5F24318B
:104B600059F74FBF8091E800877F8093E8006AE2A1
:104B700070E0CE0101960E941B228091E8008B77A5
:104B80008093E80055C0C096E7CFAE014F5F5F4FFE
:104B9000609193020E946021BC01892B09F448C0F6
:104BA0008091E800877F8093E80089819A810E9444
:104BB0007522E3CF8038E1F58091E800877F80930C
:104BC000E80080918A028093F1004ACF811130C0C1
:104BD00090919102923060F58091E800877F8093F8
:104BE000E80090938A020E94042380918A0288231D
:104BF00011F084E005C08091E30087FDFACF81E0E9
:104C000080938E020E94642013C0809191028130B3
:104C100079F481E0933009F080E080938C02109267
:104C2000E9008091E800877F8093E8000E940423D8
:104C30008091E80083FF0AC08091E800877F80931D
:104C4000E8008091EB0080628093EB00AA960FB69B
:104C5000F894DEBF0FBECDBFDF91CF911F910895B5
:104C60000895CF9380918E028823A1F0C091E9002E
:104C7000CF709091EC00892F817090FD80E8C82B57
:104C80001092E9008091E80083FD0E94E624CF7035
:104C9000C093E900CF9108950E9453266894B11102
:104CA0000C94E22608950E94C72688F09F5798F03A
:104CB000B92F9927B751B0F0E1F0660F771F881F21
:104CC000991F1AF0BA95C9F714C0B13091F00E943B
:104CD000E126B1E008950C94E126672F782F88270C
:104CE000B85F39F0B93FCCF3869577956795B39562
:104CF000D9F73EF490958095709561957F4F8F4FD1
:104D00009F4F0895E89409C097FB3EF490958095D5
:104D1000709561957F4F8F4F9F4F9923A9F0F92F81
:104D200096E9BB279395F695879577956795B795FF
:104D3000F111F8CFFAF4BB0F11F460FF1BC06F5FE5
:104D40007F4F8F4F9F4F16C0882311F096E911C0F7
:104D5000772321F09EE8872F762F05C0662371F018
:104D600096E8862F70E060E02AF09A95660F771F2C
:104D7000881FDAF7880F9695879597F9089557FD5C
:104D80009058440F551F59F05F3F71F04795880FB9
:104D900097FB991F61F09F3F79F087950895121650
:104DA00013061406551FF2CF4695F1DF08C01616FC
:104DB00017061806991FF1CF8695710561050894AD
:104DC0000895E894BB2766277727CB0197F90895C4
:104DD0000E94FB260C946C270E945E2738F00E94EC
:104DE000652720F0952311F00C9455270C945B2730
:104DF00011240C94E2260E94BF2670F3959FC1F304
:104E0000950F50E0551F629FF001729FBB27F00D78
:104E1000B11D639FAA27F00DB11DAA1F649F6627CD
:104E2000B00DA11D661F829F2227B00DA11D621F1C
:104E3000739FB00DA11D621F839FA00D611D221FD6
:104E4000749F3327A00D611D231F849F600D211DBA
:104E5000822F762F6A2F11249F5750409AF0F1F03D
:104E600088234AF0EE0FFF1FBB1F661F771F881FA6
:104E700091505040A9F79E3F510580F00C94552762
:104E80000C94E2265F3FE4F3983ED4F38695779541
:104E90006795B795F795E7959F5FC1F7FE2B880F4C
:104EA000911D9695879597F9089597F99F6780E8E2
:104EB00070E060E008959FEF80EC089500240A946C
:104EC0001616170618060906089500240A941216E5
:104ED0001306140605060895092E0394000C11F418
:104EE000882352F0BB0F40F4BF2B11F460FF04C0C5
:104EF0006F5F7F4F8F4F9F4F089597FB072E16F4DC
:104F0000009407D077FD09D00E94972707FC05D0B1
:104F10003EF4909581959F4F0895709561957F4FD0
:104F20000895EE0FFF1F0590F491E02D0994AA1B40
:104F3000BB1B51E107C0AA1FBB1FA617B70710F084
:104F4000A61BB70B881F991F5A95A9F780959095B6
:104F5000BC01CD010895F999FECF92BD81BDF89AAB
:104F6000992780B50895A8E1B0E042E050E00C94A4
:104F7000D327262FF999FECF92BD81BDF89A0197CC
:104F800000B4021639F01FBA20BD0FB6F894FA9A91
:104F9000F99A0FBE08950196272F0E94BA270C9404
:104FA000B927DC01CB01FC01F999FECF06C0F2BDA7
:104FB000E1BDF89A319600B40D9241505040B8F7D7
:104FC0000895F894FFCFAE09BA09BE09C209C6090F
:104FD000CA09CE09D209D609DA09DE09E209E609C9
:104FE000EA09EE09F209F609FA09C910C9102111F6
:104FF000211165118111F910F9108C11F910541259
:105000005412BF12F910F910C8120F2534251826B2
:0E50100034251826642585251826DA25E62580
:10501E0034022808140A321E6C1FFC1FD91FA21F4F
:10502E006F1F0136376061626364656667909192A7
:10503E009394959697C0C1303132333435404D3606
:10504E00391711CA1094105B10EE0F07102010398B
:02505E00100040
:00000001FF
